:040000008031122811
:100008007E1480310B1F10282100121D102820009B
:10001800121D10289531C8257E100900803114283A
:1000280021003730E70022000130ED003F30EE00BC
:10003800143084009C308500A03086000130870091
:1000480040308731F1278031A030840000308500AE
:1000580029308731F727803120308400013085002E
:1000680042308731F7278031203084000230850004
:1000780040308731F7278031A03084000230850076
:1000880040308731F72780312030840003308500E5
:1000980040308731F7278031A03084000330850055
:1000A80040308731F72780317E1020005B282200FE
:1000B8003730EB01EC012100E700C301C2011A212E
:1000C80080319B2080313F308E00A8228031203043
:1000D80021004402031C7928722879283D008E18D3
:1000E8007928772879289F218031210067084302E1
:1000F800031C8728802887284030DC00A030452151
:100108008031E700C3014508031D96288C289628EE
:10011800420803199628912896284208D1002030D1
:100128008C21C2016B30893174218031692821000A
:1001380012113D009301900198010E302100D20068
:100148009930D100D30151088600520887008101F7
:10015800D10A0319D20A0230D30A5302031CA72872
:1001680016303D0091009F3097007B3092002100AF
:10017800D401540809070907203E8600003087018A
:10018800C03FC13FC23FC33F0C30D40A5402031CD6
:10019800BD283D000E1796010E120E139011210076
:1001A800AF01A201A301A4013D009019D22801309A
:1001B8002200BE00BD00BC01BB01C0012100D4016A
:1001C8005435A73E860000308701C03FC13F5435F3
:1001D800203E8600013087000030C03FC13F5408F0
:1001E8002D3E8600810154082A3E86000330810195
:1001F800D40A5402031CE4282830A7001630A801AA
:100208003D0098002000A3015030A2001030A1004A
:100218000430A000A0172100C8012200A601A701F0
:10022800A801A901BA012100C40108002D218031CB
:1002380023218031422180319B208031672E3C3040
:1002480021009900980127009B0121001A1B080032
:10025800292922008C018E01303021008C000730C2
:100268008E00083023008E0010308C0038302400B7
:100278008C002100951322009D010800163097007C
:100288000800DE00C601220034083504031952298B
:100298003408860035088700811B892934088600C0
:1002A80035088700413121005C08010203186529DF
:1002B80022003408860035088700413101082100F2
:1002C800DC00C6015C0846020318792946085E0767
:1002D800DD008600013087004608A03E8400023019
:1002E800850000088100C60A6629A030D101D20025
:1002F8000230D3004030D4000230312252082200AC
:10030800B500210051082200B40021004608080069
:10031800D20012114508031D9D2952082200B80079
:10032800210051082200D000CF01CF0A2100C501C9
:10033800C50A1215080021001211220032083304E0
:100348000319AF293208860033088700811FAF29B7
:100358002100121508000330210045060319C501C4
:100368004508031DB9291215080002304506031D6A
:10037800D0290230D101D10AD201D301D4013122CE
:10038800803152082200B300210051082200B20037
:1003980003302100C5002E2A450B2E2A41302200A9
:1003A8005002031CD9294030DA2950082100DD0009
:1003B8002200D002A030B60021005D08DC00220037
:1003C8004F080319F7290B2A220036088600033044
:1003D8008700380884000330850000088100B60AC9
:1003E800B80A2100DC0321005C0803190F2AE82958
:1003F800220036088600033087003808840003305E
:10040800850000088100B60AB80A2100DC03210033
:100418005C08031DFC2922005008031D1C2A4030DB
:1004280021005D06031D1A2A02301B2A0330C5006D
:100438002100A030D101D10AD2000330D3005D08D9
:10044800D4000230312252082200B30021005108A2
:100458002200B200210012150800D9005108031922
:100468003D2A5935A73E86008701403FDA00413FC3
:10047800452A5935203E860001308700403FDA0082
:10048800413FDB005A04031D4C2AD101D201080068
:100498005208D5007F305305D6005A0886005B08FD
:1004A800870042315508C03F5608C13F5A08013EEF
:1004B800D50000305B3DD6005508860056088700F9
:1004C800540881005A0886005B088700403081057F
:1004D8005A0886005B08870081155A0886005B0861
:1004E80087008117510803198E2A5935A73E8600BF
:1004F8008701403FD500413FD60004305506D7005C
:100508005608D8005935A73E86005708C03F5808F6
:10051800C13FA32A5935203E860001308700403F5D
:10052800D500413FD60004305506D7005608D800FC
:100538005935203E86005708C03F5808C13F5B0820
:10054800D2005A08D100080021004403031DB52A2F
:100558003D008E1AB52A900112141216023021009D
:10056800C4003D001019121DBC2A101150268031FC
:100578003D008E1CC22A2000121108001018121CFF
:10058800CC2A9B20803112150430C4003D00101085
:10059800101A121ED12A402680313D00101FEE2A63
:1005A800121FE12A73302100DC00DD01DE01DF01CA
:1005B800E001E00AE101472380313D0010131126D4
:1005C800803121003508031DB5033508031DEE2AC7
:1005D800662380313D00901A921EF42A222680312B
:1005E8009018921C052BFF302100DC007F30DD00C5
:1005F800DE01DF01E001E00AE101472380313D002F
:10060800930104302100440203180D2B200012111D
:1006180008003D00921D442B2200EA01412B0F08DF
:100628002100C700470CE600E60C660C0F39B6003F
:100638003D00901121004719242B36082A3E262B0D
:1006480036082D3E86000130870081063608031DD6
:10065800302BC62380313B2B7230DC00C730DD01E4
:10066800DE000030DF00E001E10147238031220095
:100678000430EA0A6A020318442B3D009019132B30
:100688002000121108005D08003A0319532B7F3A25
:100698000319602B652B9D31F82D9C319F2C5C082C
:1006A800FF3E031C0800840075300402031808008C
:1006B80090310435003E82005C08FF3A0319652B2F
:1006C800652B080022003E08031D08000130BE000B
:1006D8003D08031D08000130BD0002302100370627
:1006E800031D882B270886002808870041318101CF
:1006F80027088600280887004830810027088600D8
:100708002808870081170800370B08002200BF015E
:100718002100390A86001030870181005030D1004D
:10072800D2013908023E86005108C03F5208C13F35
:1007380039088600043081003908860001308117A5
:100748002200BF0021003208013ED1000030333DB5
:10075800D2005108860052088700103081005030BE
:10076800D100D2013208860033088700423151088F
:10077800C03F5208C13F32088600330887008030E6
:10078800810008002D30B5004708FD39031DFE2BF8
:1007980047363F3909070907203EB900B200FF393B
:1007A800031D0030B30004303206B2003908860059
:1007B8008701010C890C0F390D3A031DFD2B5030B0
:1007C800860021003908023E84008501003F22008E
:1007D800E700013FE80067088400680885000830E2
:1007E800E90069080319FC2B12001E00E90BF82B1D
:1007F800062C372FFD3047052200E700043A031D79
:100808000800802E2100B801B4012200BC01BB0100
:10081800BF012100B7012708860028088700043097
:1008280081132706A7008600280887000430811353
:100838002706A70032088600330887008113AF0116
:10084800B001B101A201A301A40136248031033013
:100858002100DC00DD01DE01DF01E001E1014723C9
:100868009F312C2F2000500E890C0339031D0800DE
:10087800510884000D30040203180800983104352B
:10088800CF3E820008002100AF170830C4000800DE
:10089800A12D9131EA29C8302100AD000030AE0009
:1008A8002F140130B000AF1708009D31382D7A2C75
:1008B8005408603E2100AD000130AE002F14B00096
:1008C800AF1708002100AF1720005408603E8600CB
:1008D8000130870052088100080002302100DC0046
:1008E800DD01DE01DF01E001E101472B2000520BB1
:1008F8008E2C50081F39031D8E2C2100AF17033092
:1009080020005106031D8C2C01302200C1008E2CC2
:100918002200C10120005208031D080050081F3999
:10092800023A031D080054080F3903190800540837
:100938000F392100E200033062020318080020305A
:100948004406031D0800AF172000D41BBD2C540813
:100958000F390907203E860001308700403F2200FA
:10096800E500413FE600200054080F392A3E860082
:10097800CF2C54080F390907A73E86008701403F4E
:100988002200E500413FE600200054080F392D3EC3
:1009980086000130870001082200E4006418E52C75
:1009A800FB302100E200FF30E3002200650821004F
:1009B80062052200E5006608210063052200E600C2
:1009C800E82C04306504E5002000D41BF82C5408FA
:1009D8000F390907203E860001308700220065088C
:1009E800C03F6608C13F032D54080F390907A73EC9
:1009F8008600870122006508C03F6608C13F0330B2
:100A080020005106031D292D22006508860066086E
:100A18008700811F1D2D2000D41B162D54080F3967
:100A28002A3E192D54080F392D3E860001308700C3
:100A3800811422006508860066088700011565088C
:100A480086006608870081170800043022006506C2
:100A5800E5008600660887006508811F4E2D860020
:100A680066088700811365088600660887000530D8
:100A780001172100DC00DD01220066082100DF00EB
:100A8800220065082100DE000230E000E101472372
:100A98008031522D86006608870001170430220035
:100AA8006506E500E4185E2D65088600660887007F
:100AB800811F852D2000D41B652D54080F392A3E2F
:100AC800682D54080F392D3E8600013087008110AB
:100AD800220065088600660887003B3081050530DE
:100AE8002100DC00DD01220066082100DF00220071
:100AF80065082100DE000230E000E1014723803173
:100B08008B2D65088600660887003B30810520002C
:100B180054080F39983E2100E2000E30E301E33D0E
:100B280062082200E200210063082200E300620854
:100B380086006308870001100800803020005006F6
:100B4800031D0800C0302100AF00042E42302100F0
:100B5800AD009930AE001230B000B1010800520863
:100B6800031DDF2D52082100D1005E30D201D1359E
:100B7800D20D510784009930523D8500003FAD00E9
:100B8800013FAE002E08D2002D08D100023E84009D
:100B980052080318520A85000008B0002E08D20037
:100BA8002D08D100033E840052080318520A85001C
:100BB8000008B10008002100AF010800033052020C
:100BC8000318FE2D52082100D1005430D201D1352E
:100BD800D20D510784009930523D8500003FAD0089
:100BE800013FAE002D0884002E0885000008B000E3
:100BF800B10108002100AF0108002100AF01080081
:100C080020005308013A0319AA2D033A0319B32DFA
:100C1800013A0319E22D012E080001302200A6072F
:100C28000030A73DA83DA93D4008031D0800BA0AA9
:100C38003A08031D0800FF30BA000800181C3E2EB1
:100C4800210039088600803087010106031D3C2EEB
:100C5800270886002808870084300106031D3C2EDB
:100C6800390886000C308701810039088600811711
:100C78003D00181090120800121510128E14013041
:100C88002200C000BA0175302100DC00DD01DE0160
:100C9800DF01E001E101472B2200C001743021008F
:100CA800DC000030DD01DE01DF01E001E101472366
:100CB80080313D008E101211101D642E1011602E0F
:100CC8002200BA0108004408031D08003D008E01F7
:100CD8009201163091009F3097007B3092002100DE
:100CE80012150B178B173D008E197C2E8E15772E3B
:100CF80001302100C40008002100270886002808C8
:100D080087000030011B0130D60004302706A700F9
:100D180008304406031D9D2E200052087F393D00EF
:100D28009600160803199A2E10309B2E04302100C5
:100D3800C400370BD82E6030D400D50127088600B0
:100D48002808870042315408C03F5508C13FDF26B4
:100D5800803102303806031DBD2E2708860028087A
:100D6800870004308100270886002808870081173B
:100D780008005608031DCC2E27088600280887007F
:100D88004830810027088600280887008117080056
:100D98002708860028088700083081002708860071
:100DA8002808870081170800A21FDD2E25082608BD
:100DB800A213B701080010302100D300003031021F
:100DC8001030031930020318F42E3008D300380805
:100DD800031DF02E0130F32E380BF42E0230B8002C
:100DE8005308B002031CB1032708013ED1000030AC
:100DF800283DD20051088600520887005308810018
:100E080060302200C20021002F1C1D2F332F22002A
:100E180042088600870121002D0884002E088500DD
:100E280000088100AD0A0319AE0A2200C20A210097
:100E3800D3035308031908000B2F22004208860029
:100E4800870121002D0884002E08850000088100F4
:100E5800AD0A0319AE0A2200C20A2100D3035308BF
:100E680003190800212F02303706031D3C2F682F75
:100E7800B70122003F08031D662F21003208013EFA
:100E8800D7000030333DD80057088600580887003F
:100E9800103081005030D700D8013208860033085E
:100EA800870042315708C03F5808C13F32088600C2
:100EB800330887000C308100320886003308870029
:100EC80081170800BF010800390886008701413FE3
:100ED800D600D300D40154082402031D752F5308EB
:100EE80023020318792F2308D6005608A302031CEF
:100EF800A403D5015608550203188F2F2008860031
:100F0800013087005508603E840085010008810093
:100F1800A00AD50A7E2F230824040319C72F3208F4
:100F2800013ED3000030333DD400530886005408F6
:100F38008700103081006030D300D4013208860069
:100F48003308870042315308C03F5408C13F39086D
:100F5800860087013208011BBC2F860033088700F2
:100F6800483081003208860033088700811708005E
:100F7800860033088700083081003208860033086D
:100F88008700811708003208013ED3000030333D46
:100F9800D400530886005408870010308100503070
:100FA800D300D40132088600330887004231530841
:100FB800C03F5408C13F3208860033088700043018
:100FC8008100320886003308870081172508260823
:100FD800A2133408031D0800662BFE0012001E0031
:100FE800FE0BF22F0034640080010131890BF82FC9
:020FF8000034C3
:10101A002100AF170E30CA009930C900CB01490828
:10102A0086004A0887008101C90A0319CA0A0230E0
:10103A00CB0A4B02031C14282030F0003030F10197
:10104A00F201F301F400F501712088313D000E1719
:10105A002100CC014C082D3E860001308700810119
:10106A004C082A3E860003308101CC0A4C02031C3C
:10107A002F286030F0000130F1000230F201F30154
:10108A00F400F501712088313D000E13283021004B
:10109A00A7002030A801B900B200FF39031D0030B3
:1010AA00B300200052082100C8004808031D602828
:1010BA001030C40008002000C830D801D80AD9016D
:1010CA00DA000030DB00DC01DC0ADD01963168263B
:1010DA0020302100C40008007108F7007008F600EB
:1010EA000130F4020030F53B740F7E28750A0319AB
:1010FA000800760886007708870072088100F60AD9
:10110A000319F70A752822004B30DC01DB01DA00EB
:10111A000830D901DD01DE01DF0021001A30C601E5
:10112A00F4000130B12088311E30F4000230B120C1
:10113A008831A030F001F1000230F2004030F300B3
:10114A000230FD2071082200B5007008B400B20117
:10115A00B3012100C5010800F900741DB728F00188
:10116A00CE208831F41CBD28F001F00A7908CE207F
:10117A007908983EF5000E30F601F63D7508F7003D
:10118A007608F800770886007808870074088100D6
:10119A000800F2002030F3007008F100F1357208FF
:1011AA0009070907710709070907F3077308860082
:1011BA00870181137008031DEC287235203E8600D2
:1011CA00013087007308C03F0030C13FF4287235F0
:1011DA00A73E860087017308C03F0030C13F7308ED
:1011EA008600870101137308043E86000117080070
:1011FA00F8007008031909297835A73E8600870187
:10120A00403FF900413F11297835203E86000130E0
:10121A008700403FF900413FFA007904031D18296D
:10122A00F001F10108007108F4007F307205F50041
:10123A00790886007A08870042317408C03F750829
:10124A00C13F7908013EF40000307A3DF500740888
:10125A0086007508870073088100790886007A0875
:10126A00870040308105790886007A088700811551
:10127A00790886007A0887008117700803195A29A5
:10128A007835A73E86008701403FF400413FF500CC
:10129A0004307406F6007508F7007835A73E860014
:1012AA007608C03F7708C13F6F297835203E86000F
:1012BA0001308700403FF400413FF50004307406D6
:1012CA00F6007508F7007835203E86007608C03F9C
:1012DA007708C13F7A08F1007908F0000800DE00BB
:1012EA00D401D40A9E2F2100D4015E088600013061
:1012FA008700A630C03F0030C13F540803190800D8
:10130A005E08860001308700A730C03F0030C13F29
:10131A0067084302031808004308A03E860001300C
:10132A0087000108C100C30A2200CE00C030CE05E2
:10133A0040304E06031DA5296E0921004105C32D23
:10134A0080304E06031DCF2920000E082200C60059
:10135A006E08C6056E092100410522008E00210093
:10136A005E08860001308700B730C03F0030C13FB9
:10137A004508031D080040304202031808004208CD
:10138A00203E8600033087002200460881002100A3
:10139A00C20A782921004108D700F830D705183049
:1013AA005706031D232E4108C0000730C0055E08FA
:1013BA00860001308700C030C03F0030C13F670857
:1013CA004302031808004308A03E86000130870044
:1013DA0001082200CD002100C30A5E088600C13040
:1013EA00C03F0030C13F67084302031808004308A2
:1013FA00A03E86000130870001082200CC002100AF
:10140A00C30A4008090709070907223E8600023075
:10141A0087000108BE004008090709070907233E9B
:10142A0086000108BD004008090709070907203E90
:10143A00860001082200CB000F30CB050C304B068A
:10144A00031DAA2BED01ED0A21004008090709072F
:10145A000907213E86000108BF00BA0122004C0894
:10146A0021003A020318F82A2200C90121003E0885
:10147A0022008E0021003D0822008E0020000E0866
:10148A0021003F0503194B2A2200491421003E0876
:10149A0022008E0021003D0822008E0020000E0846
:1014AA0021003F0503195B2A2200C91421003E08C6
:1014BA0022008E0021003D0822008E0020000E0826
:1014CA0021003F0503196B2A2200491521003E0815
:1014DA0022008E0021003D0822008E0020000E0806
:1014EA0021003F0503197B2A2200C91521003E0865
:1014FA0022008E0021003D0822008E0020000E08E6
:10150A0021003F0503198B2A2200491621003E08B3
:10151A0022008E0021003D0822008E0020000E08C5
:10152A0021003F0503199B2A2200C91621003E0803
:10153A0022008E0021003D0822008E0020000E08A5
:10154A0021003F050319AB2A2200491721003E0852
:10155A0022008E0021003D0822008E0020000E0885
:10156A0021003F050319BB2A2200C91721005E0882
:10157A00860001308700F130C03F0030C13F670864
:10158A004302031808004308A03E86000130870082
:10159A0001082200C8002100C30A5E088600F23052
:1015AA00C03F0030C13F67084302031808004308E0
:1015BA00A03E86000130870001082200C7002100F2
:1015CA00C30A2200470849052100D1002200470822
:1015DA0048052100D20051060319F52A2200ED011F
:1015EA002100BA0A332A2200C9012100D801D80AE7
:1015FA00BA0122004D08FF3E2100D100FF30031836
:10160A000030D2005208803A803C031D0E2B51084C
:10161A003A020318252B21003E0822008E002100E1
:10162A003D0822008E0020000E0821003F05031904
:10163A00212B58082200C9042100D835BA0AFE2AEB
:10164A0021004008090709070907263E86000230DB
:10165A0087000108D5003E0422008E0021003D08C3
:10166A00550422008E0020000E0821003F050319B0
:10167A00412B58082200C90421005E088600013067
:10168A0087000B30C03F0130C13F6708430203188F
:10169A0008004308A03E86000130870001082200A6
:1016AA00C8002100C30A5E0886000C30C03F013022
:1016BA00C13F67084302031808004308A03E86009A
:1016CA000130870001082200C7002100C30A220056
:1016DA00470849052100D100220047084805210092
:1016EA00D200510603197B2B2200ED0122004A0881
:1016FA000319852B6D08031978292200CA01782954
:10170A006D08031D7829C401C40A4308031D7829FA
:10171A0021005E088600013087001B30C03F01307F
:10172A00C13F4508031D0800403042020318080063
:10173A004208203E8600033087008101810A210089
:10174A00C20A2200C301C30A782904304B06031DCA
:10175A00BF2C21004008090709070907213E860016
:10176A00023087000108BF00BA0122004C0821009C
:10177A003A0203185E2C2200C50121003E0822000D
:10178A008E0021003D0822008E0020000E08210054
:10179A003F050319D22B2200451421003E082200DE
:1017AA008E0021003D0822008E0020000E08210034
:1017BA003F050319E22B2200C51421003E0822002E
:1017CA008E0021003D0822008E0020000E08210014
:1017DA003F050319F22B2200451521003E0822007D
:1017EA008E0021003D0822008E0020000E082100F4
:1017FA003F050319022C2200C51521003E082200CC
:10180A008E0021003D0822008E0020000E082100D3
:10181A003F050319122C2200451621003E0822001A
:10182A008E0021003D0822008E0020000E082100B3
:10183A003F050319222C2200C51621003E0822006A
:10184A008E0021003D0822008E0020000E08210093
:10185A003F050319322C2200451721003E082200B9
:10186A008E0021003D0822008E0020000E08210073
:10187A003F050319422C2200C51721005E08860085
:10188A00013087004930C03F0130C13F4508031D80
:10189A00080040304202031808004208203E860031
:1018AA00033087002200450881002100C20ABA0AD3
:1018BA00BA2B2200C5012100D901D90ABA01220096
:1018CA004D08FF3E2100D100FF3003180030D2003E
:1018DA005208803A803C031D742C51083A020318BE
:1018EA008B2C21003E0822008E0021003D08220098
:1018FA008E0020000E0821003F050319872C590885
:10190A002200C5042100D935BA0A642C21004008F6
:10191A00090709070907263E8600023087000108E1
:10192A00D6003E0422008E0021003D085604220003
:10193A008E0020000E0821003F050319A72C590824
:10194A002200C50421005E088600013087005D3050
:10195A00C03F0130C13F4508031D08004030420224
:10196A00031808004208203E860003308700220040
:10197A004508CB294B0BC52D21004008090709074B
:10198A000907243E8600023087000108BC0040088F
:10199A00090709070907253E86000108BB00BA01A5
:1019AA0022004C0821003A025E08860001308700B6
:1019BA000318712D6430C03F0130C13F67084302EC
:1019CA00031808004308A03E86000130870001087A
:1019DA00DD00C30A5D1CF72C3C0822008E002100A2
:1019EA003B08FC2C3E0822008E0021003D08220004
:1019FA008E002100DD1C072D3C0822008E002100EC
:101A0A003B080C2D3E0822008E0021003D082200D2
:101A1A008E0021005D1D172D3C0822008E0021003A
:101A2A003B081C2D3E0822008E0021003D082200A2
:101A3A008E002100DD1D272D3C0822008E0021008A
:101A4A003B082C2D3E0822008E0021003D08220072
:101A5A008E0021005D1E372D3C0822008E002100D9
:101A6A003B083C2D3E0822008E0021003D08220042
:101A7A008E002100DD1E472D3C0822008E00210029
:101A8A003B084C2D3E0822008E0021003D08220012
:101A9A008E0021005D1F572D3C0822008E00210078
:101AAA003B085C2D3E0822008E0021003D082200E2
:101ABA008E002100DD1F672D3C0822008E002100C8
:101ACA003B086C2D3E0822008E0021003D082200B2
:101ADA008E002100BA0AD52CA730C03F0130C13F81
:101AEA0067084302031808004308A03E8600013035
:101AFA0087000108DA00C30ABA0122004D08FF3E36
:101B0A002100D100FF3003180030D2005208803A79
:101B1A00803C031D922D51083A020318A82D21007A
:101B2A005A1C9D2D3C0822008E0021003B08A22D44
:101B3A003E0822008E0021003D0822008E0021006E
:101B4A00DA36BA0A822D210040080907090709076F
:101B5A00263E8600023087000108DC005A1CBC2D94
:101B6A003C085C0422008E0021003B08C22D3E087E
:101B7A005C0422008E0021003D085C0422009C2F98
:101B8A004B08031D78292100BA0122004C082100C4
:101B9A003A020318122E3E0822008E0021003D0848
:101BAA0022008E0021003E0822008E0021003D08FE
:101BBA0022008E0021003E0822008E0021003D08EE
:101BCA0022008E0021003E0822008E0021003D08DE
:101BDA0022008E0021003E0822008E0021003D08CE
:101BEA0022008E0021003E0822008E0021003D08BE
:101BFA0022008E0021003E0822008E0021003D08AE
:101C0A0022008E0021003E0822008E0021003D089D
:101C1A0022008E002100BA0ACA2DBA0122004D08FC
:101C2A0021003A02031878293E0822008E0021007A
:101C3A003D0822008E002100BA0A132E10304106F8
:101C4A00031D5F2E5E08860001308700DB30C03F2F
:101C5A000130C13F67084302031808004308A03E49
:101C6A008600013087000108DB00C30A2200B000A9
:101C7A00B10121005E088600DE30C03F0130C13F5D
:101C8A0067084302031808004308A03E8600013093
:101C9A0087000108DB00C30AD100D201D200D101BA
:101CAA0051082200B004210052082200B104CA01DE
:101CBA00CA0A782911304106031D932E01302200E9
:101CCA00B0020030B13B300831040319732E4A08C0
:101CDA000319782903302100C30078294A08031917
:101CEA00822BC401C40AC301C30A21005E0886000C
:101CFA0001308700F530C03F0130C13F4508031D60
:101D0A00080040304202031808004208203E8600BC
:101D1A00033087008101810AC20A822B08305706E4
:101D2A00031D5E2F4108C0000730C0055E0886000B
:101D3A0001308700C03F0230C13F670843020318E1
:101D4A0008004008090709070907203E86000230F3
:101D5A0087004308A03E8400013085000008810006
:101D6A00C30A5E088600013087000230C03FC13FC7
:101D7A00670843020318080040080907090709070A
:101D8A00213E8600023087004308A03E84000130CD
:101D9A00850000088100C30A5E08860001308700BA
:101DAA000330C03F0230C13F6708430203180800EE
:101DBA004008090709070907223E86000230870002
:101DCA004308A03E84000130850000088100C30A50
:101DDA005E088600013087000430C03F0230C13FF0
:101DEA00670843020318080040080907090709079A
:101DFA00233E8600023087004308A03E840001305B
:101E0A00850000088100C30A5E0886000130870049
:101E1A000530C03F0230C13F67084302031808007B
:101E2A004008090709070907243E8600023087008F
:101E3A004308A03E84000130850000088100C30ADF
:101E4A005E088600013087000630C03F0230C13F7D
:101E5A006708430203180800400809070907090729
:101E6A00253E8600023087004308A03E84000130E8
:101E7A00850000088100C30A5E08860001308700D9
:101E8A000730C03F0230C13F670843020318080009
:101E9A004008090709070907263E8600023087001D
:101EAA004308A03E84000130850000088100C30A6F
:101EBA00782920304106031D662F2200C401C30180
:101ECA00782921304106031D822F5E0886000130E1
:101EDA0087001030C03F0230C13F4508031D08008B
:101EEA0040304202031808004208203E86000330B0
:101EFA008700220044088100A42B5E088600013076
:101F0A0087001530C03F0230C13F670843020318FB
:101F1A0008004308A03E8600013087000108C1007E
:101F2A00C30A2200EE003F30EE056E0821008E0043
:101F3A0078295E08860001308700403FD100413F82
:101F4A00D2005208003A0319B12F013A0319CB2FD4
:101F5A00033A0319EB2FF82F5108003A031978298D
:101F6A00A63A03198229013A03198D29103A03194D
:101F7A00BD29773A0319E429013A0319F829303AB5
:101F8A000319C42A033A0319D82AF82F51080B3A1D
:101F9A0003194A2B073A03195E2B173A0319962B92
:101FAA00523A03194B2C143A0319B02C393A031933
:101FBA00E32CC33A0319752D7C3A03192F2E053ADF
:101FCA000319452E2B3A0319832EF82F5108FF3E89
:101FDA00031CF82F8400153004020318F82F9231DD
:101FEA000435643E82005E088600013087000030B6
:101FFA00C03FC13F080083314F2B8331652B8331AA
:10200A00512B8331652B8331652B8331652B8331CA
:10201A00652B8331652B8331652B8331652B8331A6
:10202A00652B8331652B8331652B8331652B833196
:10203A00652B8331652B8331652B8331652B833186
:10204A00652B8331652B8331652B8331652B833176
:10205A00652B8331652B8331652B8331652B833166
:10206A00652B8331652B8331652B8331652B833156
:10207A00652B8331652B8331652B8331652B833146
:10208A00652B8331652B8331652B8331652B833136
:10209A00652B8331652B8331652B8331652B833126
:1020AA00652B8331652B8331652B8331652B833116
:1020BA00652B8331652B8331652B8331652B833106
:1020CA00652B8331652B8331652B8331652B8331F6
:1020DA00652B8331652B8331652B8331652B8331E6
:1020EA00652B8331652B8331652B8331652B8331D6
:1020FA00652B8331652B8331652B8331652B8331C6
:10210A00652B8331652B8331652B8331652B8331B5
:10211A00652B8331652B8331652B8331652B8331A5
:10212A00652B8331652B8331652B8331652B833195
:10213A00652B8331652B8331652B8331652B833185
:10214A00652B8331652B8331652B8331652B833175
:10215A00652B8331652B8331652B8331652B833165
:10216A00652B8331652B8331652B8331652B833155
:10217A00652B8331652B8331652B8331652B833145
:10218A00652B8331652B8331652B8331652B833135
:10219A00652B8331652B8331652B8331652B833125
:1021AA00652B8331652B8331652B8331652B833115
:1021BA00652B8331652B8331652B8331652B833105
:0A21CA00652B8331652B8331652BF3
:102200009631692E9631892E96316C2E9631892E13
:102210009631892E9631892E9631892E9631892EC6
:102220009631892E9631892E9631892E9631892EB6
:102230009631892E9631892E9631892E9631892EA6
:102240009631892E9631892E9631892E9631892E96
:102250009631892E9631892E9631892E9631892E86
:102260009631892E9631892E9631892E9631892E76
:102270009631892E9631892E9631892E9631892E66
:102280009631892E9631892E9631892E9631892E56
:102290009631892E9631892E9631892E9631892E46
:1022A0009631892E9631892E9631892E9631892E36
:1022B0009631892E9631892E9631892E9631892E26
:1022C0009631892E9631892E9631892E9631892E16
:1022D0009631892E9631892E9631892E9631892E06
:1022E0009631892E9631892E9631892E9631892EF6
:1022F0009631892E9631892E9631892E9631892EE6
:102300009631892E9631892E9631892E9631892ED5
:102310009631892E9631892E9631892E9631892EC5
:102320009631892E9631892E9631892E9631892EB5
:102330009631892E9631892E9631892E9631892EA5
:102340009631892E9631892E9631892E9631892E95
:102350009631892E9631892E9631892E9631892E85
:102360009631892E9631892E9631892E9631892E75
:102370009631892E9631892E9631892E9631892E65
:102380009631892E9631892E9631892E9631892E55
:102390009631892E9631892E9631892E9631892E45
:1023A0009631892E9631892E9631892E9631892E35
:1023B0009631892E9631892E9631892E9631892E25
:1023C0009631892E9631892E9631892E9631892E15
:1023D0009631892E2100AF170E30E3009930E200CC
:1023E000E40162088600630887008101E20A03199C
:1023F000E30A0230E40A6402031CF1292030D10010
:102400003030D201D301D401D500D6014D22913113
:102410003D000E172100E50165082D3E86000130C4
:102420008700810165082A3E860003308101E50AA4
:102430006502031C0C2A6030D1000130D20002304A
:10244000D301D401D500D6014D2291313D000E13A8
:1024500028302100A7002030A801B900B200FF39C0
:10246000031D0030B300200052082100C8004808B6
:10247000031D3D2A1030C4000800C830DC01DC0A0E
:10248000DD01DE000030DF00E001E00AE101833120
:10249000472320302100C40008005208D80051080A
:1024A000D7000130D5020030D63B550F5A2A560AC4
:1024B0000319080057088600580887005308810050
:1024C000D70A0319D80A512A8E31A22E8E31BD2E79
:1024D0008E31D92E8E31F52E8F31112F8F312D2F38
:1024E0008F31492F8F31F82F8F31F82F8F31F82FFF
:1024F0008F31F82F8F31F82F8F31F82F8F31F82F40
:102500008F31F82F8F31722F8F31F82F8F31F82FB5
:0C2510008F31F82F8F31F82F8F318A2F78
:102546003D000E122100AF1BE42AA21FB52A02305D
:10255600B70022003B08031DB12A21232200BD013A
:10256600BE0108003208013EF5000030333DF6009A
:102576007508860076088700103081005030F50017
:10258600F601320886003308870042317508C03FDD
:102596007608C13F32088600330887000C30810078
:1025A6003208860033088700811727088600280826
:1025B60087000430810027088600280887008117D5
:1025C60008002000D01FFA2A01302100B70022009F
:1025D6003C08031DF02A212392312200BD01BE01D1
:1025E60021003408031D080096318A2608000230AF
:1025F6002100B7003208013EF5000030333DF600F9
:102606007508860076088700103081005030F50086
:10261600F601320886003308870042317508C03F4C
:102626007608C13F320886003308870004308100EF
:1026360032088600330887008117F02ABC01BB01E7
:10264600023021003706031D4C2B3208013EF300F1
:102656000030333DF400730886007408870010309C
:1026660081006030F300F4013208860033088700E9
:1026760042317308C03F7408C13F320886003308F0
:1026860087004830810032088600330887008117AA
:102696000800310820005702031D552B2100300881
:1026A6002000560203185E2B57082100B1002000B7
:1026B60056082100B000D7236030F300F401210052
:1026C600270886002808870042317308C03F74082F
:1026D600C13F270886002808870048308100270860
:1026E6008600280887008117080027088600280822
:1026F60087000030011B0130F50004302706A700D3
:1027060008304406031D942B200052087F393D00F3
:10271600960016080319912B1030922B04302100D5
:10272600C400370BD02B6030F300F4012708860075
:102736002808870042317308C03F7408C13FD72379
:102746009231023021003806031DB52B270886007A
:10275600280887000430810027088600280887009B
:10276600811708007508031DC42B27088600280852
:1027760087004830810027088600280887008117CF
:1027860008002708860028088700083081002708E7
:1027960086002808870081170800A21FD52B250868
:1027A6002608A213B70108001030F20000302100FD
:1027B60031021030031930020318EC2B3008F200F6
:1027C6003808031DE82B0130EB2B380BEC2B0230BD
:1027D600B8007208B002031CB1032708013EF000DE
:1027E6000030283DF10070088600710887007208E5
:1027F600810060302200C20021002F1C142C292CDD
:10280600220042088600870121002D0884002E0838
:10281600850000088100AD0A0319AE0A2200C20A2B
:10282600F203720803190800032C220042088600EE
:10283600870121002D0884002E08850000088100EC
:10284600AD0A0319AE0A2200C20AF203720803197E
:102856000800182C2100B801B4012200BC01BB01FC
:10286600BF012100B7012708860028088700043029
:1028760081132706A70086002808870004308113E5
:102886002706A70032088600330887008113AF01A8
:10289600B001B101A201A301A4015F249431033068
:1028A6002000D8000030D901DA01DB01DC01DD01AE
:1028B60068269231A32208002000500E890C0339A5
:1028C600031D08009F2C2100AF170830C400080024
:1028D6009D318825080088310D200800C830210068
:1028E600AD000030AE002F140130B000AF17080065
:1028F6009C31EB240800AA2408005408603E2100FD
:10290600AD000130AE002F14B000AF170800210053
:10291600AF1720005408603E860001308700520839
:10292600810008000230D8000030D901DA01DB014D
:10293600DC01DD0168260800510884000D30040220
:102946000318080099310435003E82000800200073
:10295600520BBE2C50081F39031DBE2C2100AF1789
:10296600033020005106031DBC2C01302200C1009B
:10297600BE2C2200C10120005208031D0800500889
:102986001F39023A031D080054080F3903190800BD
:1029960054080F39FB0003307B020318080020306F
:1029A60021004406031D0800AF172000D41BED2CA0
:1029B60054080F390907203E860001308700403F42
:1029C6002100CC00413FCD00200054080F392A3E9B
:1029D6008600FF2C54080F390907A73E8600870199
:1029E600403F2100CC00413FCD00200054080F3964
:1029F6002D3E86000130870001082100CB004B18D0
:102A06000F2DFB30FB00FF30FC004C087B05CC0093
:102A16004D087C05CD00122D04304C04CC0020005E
:102A2600D41B222D54080F390907203E8600013099
:102A3600870021004C08C03F4D08C13F2D2D54088A
:102A46000F390907A73E8600870121004C08C03FC1
:102A56004D08C13F033020005106031D532D2100B0
:102A66004C0886004D088700811F472D2000D41B87
:102A7600402D54080F392A3E432D54080F392D3E58
:102A8600860001308700811421004C0886004D081D
:102A9600870001154C0886004D088700811708003D
:102AA600043021004C06CC0086004D0887004C08F7
:102AB600811F782D86004D08870081134C088600FB
:102AC6004D088700053001172000D800D9012100E4
:102AD6004D082000DB0021004C082000DA000230FF
:102AE600DC00DD01682694317C2D86004D088700C8
:102AF6000117043021004C06CC00CB18882D4C0859
:102B060086004D088700811FAF2D2000D41B8F2D16
:102B160054080F392A3E922D54080F392D3E86004F
:102B260001308700811021004C0886004D0887007F
:102B36003B30810505302000D800D90121004D0821
:102B46002000DB0021004C082000DA000230DC0007
:102B5600DD0168269431B52D4C0886004D088700A6
:102B66003B308105200054080F39983EFB000E309B
:102B7600FC01FC3D7B082100C9007C08CA0049080D
:102B860086004A0887000110080021004403031D3F
:102B9600D52D3D008E1AD52D900112141216023035
:102BA6002100C4003D001019121DDC2D1011E9276B
:102BB60094313D008E1CE22D2000121108001018E1
:102BC600121CEC2D2D27943112150430C4003D0043
:102BD6001010101A121EF12DD72794313D00101F28
:102BE6000E2E121F012E73302000D800D901DA01F3
:102BF600DB01DC01DC0ADD01682694313D0010139F
:102C0600A827943121003508031DB5033508031D97
:102C16000E2E8A2694313D00901A921E142EB92744
:102C260094319018921C252EFF302000D8007F305A
:102C3600D900DA01DB01DC01DC0ADD01682694310A
:102C46003D00930104302100440203182D2E20007C
:102C5600121108003D00921D652E2000DE01043091
:102C66005E020318652E3D00901D652E0F0821009B
:102C7600C700470CFD00FD0C7D0C0F39B6003D006A
:102C86009011210047194A2E36082A3E4C2E360846
:102C96002D3E86000130870081063608031D562E1C
:102CA600EA269431622E72302000D800C730D9014E
:102CB600DA000030DB00DC01DD01682694312000FB
:102CC600DE0A322E2000121108006F2E883188206D
:102CD60008009C31542408005908003A0319772E3D
:102CE6007F3A0319842E892E5808FF3E031C0800DC
:102CF6008400753004020318080091310435003E43
:102D060082005808FF3A0319892E892E08002200EE
:102D16003E08031D08000130BE003D08031D0800E3
:102D26000130BD00023021003706031DAC2E2708F6
:102D36008600280887004131810127088600280877
:102D460087004830810027088600280887008117F9
:102D56000800370B08002200BF012100390A86004F
:102D66001030870181005030F000F1013908023E31
:102D760086007008C03F7108C13F390886000430DC
:102D8600810039088600013081172200BF0021002A
:102D96003208013EF0000030333DF1007008860035
:102DA60071088700103081005030F000F1013208C0
:102DB60086003308870042317008C03F7108C13F62
:102DC60032088600330887008030810008002D30E5
:102DD600B5004708FD39031D242F47363F3909073B
:102DE6000907203EB900B200FF39031D0030B300C9
:102DF60004303206B200390886008701010C890CBE
:102E06000F390D3A031D212F503086002100390855
:102E1600023E84008501003FCE00013FCF004E08F0
:102E260084004F0885000830D000500803191F2F72
:102E360012001E00D00B1B2F2D2408009E316F267A
:102E46000800FD304705CE00043A031D0800933103
:102E560078230800210012113D009301900198018A
:102E66000E30F1009930F000F2017008860071080A
:102E760087008101F00A0319F10A0230F20A720290
:102E8600031C382F163091009F3097007B3092003C
:102E9600F301730809070907203E86000030870101
:102EA600C03FC13FC23FC33F0C30F30A7302031C4D
:102EB6004C2F0E1796010E120E1390112100AF0122
:102EC600A201A301A4013D009019602F0130220048
:102ED600BE00BD00BC01BB01C001F3017335A73EB6
:102EE600860000308701C03FC13F7335203E860013
:102EF600013087000030C03FC13F73082D3E860079
:102F0600810173082A3E860003308101F30A7302A9
:102F1600031C712F28302100A7001630A8013D00A0
:102F260098002000A3015030A2001030A100043008
:102F3600A000A0172100C8012200A601A701A80130
:102F4600A901BA012100C401080001302200A60728
:102F56000030A73DA83DA93D4008031D0800BA0A58
:102F66003A08031D0800FF30BA000800181CD52FC8
:102F7600210039088600803087010106031DD32F02
:102F8600270886002808870084300106031DD32FF2
:102F9600390886000C3087018100390886008117C0
:102FA6003D00181090120800121510128E140130F0
:102FB6002200C000BA0175302000D8000030D901C7
:102FC600DA01DB01DC01DD01682608002200C00110
:102FD60074302000D8000030D901DA01DB01DC01B1
:102FE600DD01682694313D008E101211101DFD2F53
:102FF6001011F92F2200BA0108009C31B22C9C3125
:10300600BD2C9C31EA2C9C31EA2C9C31EA2C9C315B
:10301600EA2C9C31EA2C9C31EA2C9C31EA2C9C311E
:10302600EA2C9C31EA2C9C31EA2C9C31EA2C9C310E
:10303600EA2C9C31EA2C9C31EA2C9C31EA2C9C31FE
:10304600EA2C9C31EA2C9C31EA2C9C31EA2C9C31EE
:10305600EA2C9C31EA2C9C31EA2C9C31EA2C9C31DE
:10306600EA2C9C31EA2C9C31EA2C9C31EA2C9C31CE
:10307600EA2C9C31EA2C9C31EA2C9C31C42C9C31E4
:10308600D12C9C31DC2C9C31662C9C31712C9C31D2
:103096009E2C9C319E2C9C319E2C9C319E2C9C31CE
:1030A6009E2C9C319E2C9C319E2C9C319E2C9C31BE
:1030B6009E2C9C319E2C9C319E2C9C319E2C9C31AE
:1030C6009E2C9C319E2C9C319E2C9C319E2C9C319E
:1030D6009E2C9C319E2C9C319E2C9C319E2C9C318E
:1030E6009E2C9C319E2C9C319E2C9C319E2C9C317E
:1030F6009E2C9C319E2C9C319E2C9C319E2C9C316E
:103106009E2C9C319E2C9C31782C9C31852C9C319C
:10311600902C093402344334003402340134003430
:10312600C0343234093404340034003401340234F7
:1031360002340134003405342434003410340134AC
:10314600043424340234023405342434063400347E
:103156000134053424340134003401340734053491
:10316600813403340834003402340934043401341D
:10317600003402340A340034003400340734053491
:1031860002340234403400340034073405348234C7
:1031960002344034003400348431592C84315B2CA1
:1031A6008431462C84315B2C8431462C8431472C67
:1031B60084314C2C8431712C84314F2C84314D2C2C
:0C31C60084315C2C8431662C8431462C52
:1032000094317B2C94317E2C9431A92C94317E2CDA
:103210009431A92C9431662C94316B2C9431952CDB
:103220009431712C94316E2C9431802C94318A2CF1
:103230009431A92C163403345034003472340034E1
:103240006F34003467340034723400346134003435
:103250006D3400346D34003465340034723400341D
:103260001234033454340034693400346E3400347E
:103270007934003446340034503400344734003458
:103280004134003412340134003402340234003446
:103290000034103409341234013421340034013440
:1032A00001340234003401345A34993430349934BE
:1032B0001A34993404340334093404348C34983483
:1038280000340734083400340034003410340034D1
:103838001034003409340134003400341034203496
:10384800303400340A34013400340034103408347D
:10385800183420340B340434043400341034003465
:10386800103420340C340C34043400341034003454
:103878001034203400340F341C34083403344334F7
:10388800FF34A034FF342B34FF340134FF340034C8
:103898000034003400340034003400340034003480
:1038A80050081F39013A031D0800500E890C0339CE
:1038B800013A031D080054080319942C5403031DEE
:1038C8000800942C51302100AD000130AE000830C2
:1038D800B000B1012F14AF17080051302100AD001E
:1038E8000130AE00AF17080057082100A4002000DF
:1038F80056082100A3005930A000A501A601A2176F
:10390800080059302100AD000130AE000730B0008A
:10391800B101C130AF00080052082100AF170800FC
:103928005108840023300402031808009831043534
:10393800463E82000800200050081F39013A031D46
:103948000800500E890C0339013A031D0800540879
:103958000319E02C5403031D0800E02C513021000A
:10396800AD000130AE000830B000B1012F14AF1720
:10397800080051302100AD000130AE00AF1708003B
:1039880057082100A400200056082100A300593040
:10399800A000A501A601A217080059302100AD001A
:1039A8000130AE000730B000B101C130AF000800EF
:1039B80052082100AF170800510884002330040280
:1039C8000318080098310435003E820008002000E2
:1039D800E001E101232D2100AF172200410B2E2D1C
:1039E8002000E0142E2D2100AF172E2D2100AF1737
:1039F8002000D41B0A2D54080F390907203E8600E1
:103A080001308700403FF000413F132D54080F3923
:103A18000907A73E86008701403FF000413FF100BB
:103A28007008860071088700811F2E2D7008860097
:103A380071088700011D2E2D0130E0002E2D500841
:103A48001F390319EF2C013A0319F72C033A03190C
:103A5800FA2C2E2D2100AF1F08006030AD00AE01FA
:103A68002F140230B00008002000E001E101732D9E
:103A78002100AF172200410B7E2D2000E0147E2D7F
:103A88002100AF177E2D2100AF172000D41B582D21
:103A980054080F390907203E860001308700403F4F
:103AA8002100D100413F622D54080F390907A73E74
:103AB80086008701403F2100D100413FD2005108D4
:103AC800860052088700811F7E2D51088600520803
:103AD8008700011D7E2D01302000E0007E2D50085A
:103AE8001F3903193C2D013A0319442D033A0319D0
:103AF800472D7E2D2100AF1F08006030AD00AE01BC
:103B08002F140230B0000800803020005006031D3A
:103B18000800C0302100AF00EB2D42302100AD007D
:103B28009930AE001230B000B10108005208031DF0
:103B3800C62D5208F0005E30F101F035F10D700726
:103B480084009930713D8500003F2100AD00013FA0
:103B5800AE002E08F1002D08F000023E8400710826
:103B68000318710A85000008B0002E08F1002D081E
:103B7800F000033E840071080318710A85000008EC
:103B8800B10008002100AF010800033052020318F9
:103B9800E52D5208F0005430F101F035F10D7007B1
:103BA80084009930713D8500003F2100AD00013F40
:103BB800AE002D0884002E0885000008B000B10171
:103BC80008002100AF0108002100AF010800200013
:103BD8005308013A0319912D033A03199A2D013A12
:103BE8000319C92DE82D080022004B30DC01DB0148
:103BF800DA000830D901DD01DE01DF0021001A30CA
:103C0800C601D500013023269D311E30D500023073
:103C18002326A030D101D2000230D3004030D40096
:103C280002308231312252082200B50021005108A9
:103C38002200B400B201B3012100C5010800DA0076
:103C4800551D292ED10140269D31D51C2F2ED1017D
:103C5800D10A5A0840265A08983ED6000E30D70195
:103C6800D73D5608D8005708D90058088600590883
:103C78008700550881000800D3002030D40051087F
:103C8800D200D2355308090709075207090709075F
:103C9800D40754088600870181135108031D5E2E3E
:103CA8005335203E8600013087005408C03F00305D
:103CB800C13F662E5335A73E860087015408C03F92
:103CC8000030C13F54088600870101135408043EA0
:103CD80086000117080002303706031D752EA1263D
:103CE8000800B70122003F08031D9F2E210032085B
:103CF800013EF6000030333DF7007608860077086D
:103D08008700103081005030F600F7013208860035
:103D18003308870042317608C03F7708C13F320830
:103D28008600330887000C3081003208860033088B
:103D3800870081170800BF0108003908860087013D
:103D4800413FF500F200F30173082402031DAE2E73
:103D5800720823020318B22E2308F5007508A3027F
:103D6800031CA403F401750874020318C82E200864
:103D78008600013087007408603E840085010008D1
:103D88008100A00AF40AB72E230824040319002F7F
:103D98003208013EF2000030333DF300720886001D
:103DA80073088700103081006030F200F301320898
:103DB80086003308870042317208C03F7308C13F4C
:103DC8003908860087013208011BF52E8600330862
:103DD8008700483081003208860033088700811741
:103DE8000800860033088700083081003208860002
:103DF80033088700811708003208013EF2000030BE
:103E0800333DF30072088600730887001030810084
:103E18005030F200F301320886003308870042313F
:103E28007208C03F7308C13F320886003308870014
:103E3800043081003208860033088700811725087E
:103E48002608A2133408031D080096318A260800A4
:103E58003D000E122100AF1B6D2FA21F3E2F023016
:103E6800B70022003B08031D3A2FA9272200BD01F5
:103E7800BE0108003208013ED6000030333DD700AD
:103E88005608860057088700103081005030D60049
:103E9800D701320886003308870042315608C03FF0
:103EA8005708C13F32088600330887000C3081006C
:103EB80032088600330887008117270886002808FB
:103EC80087000430810027088600280887008117AA
:103ED80008002000D01F822F01302100B7002200E7
:103EE8003C08031D792FA9279F312200BD01BE017F
:103EF80021003408031D08008331662B023021009D
:103F0800B7003208013ED6000030333DD7005608CE
:103F1800860057088700103081005030D600D7013E
:103F2800320886003308870042315608C03F5708D8
:103F3800C13F320886003308870004308100320808
:103F48008600330887008117792FBC01BB01023036
:103F580021003706031DD42F3208013ED40000305B
:103F6800333DD5005408860055088700103081007D
:103F78006030D400D501320886003308870042310A
:103F88005408C03F5508C13F3208860033088700EF
:103F980048308100320886003308870081170800FE
:103FA800310820005702031DDD2F210030082000B2
:103FB80056020318E62F57082100B10020005608C2
:103FC8002100B0008631DF266030D400D5012708F3
:103FD80086002808870042315408C03F5508C13F71
:103FE80027088600280887004830810027088600AF
:083FF80028088700811708006A
:020000040001F9
:04000E00E4FFCFFF3D
:00000001FF
