:040000008031122811
:100008007E1480310B1F10282100121D102820009B
:10001800121D10288D31BA257E1009008031142850
:1000280024002030EE000130EF0025002030E900E8
:10003800EA000130EB003F30EC00A030ED00260074
:100048002030AC00AD002430AE002030AF00B0004E
:100058000130B1002030B2000230B300A030B4004B
:10006800B501B6000130B700E030840000308500EB
:1000780008308731F82780312300EC01ED01EE01CB
:10008800EF012400A030E801E901EA01EB01EC01ED
:10009800ED0184000230850049308731F82780312E
:1000A80020308400033085000C308731F8278031F8
:1000B800A03084000330850040308731F8277E1057
:1000C80020009131F7292100660822008E002100C6
:1000D800650822008E0020000E0824006805031918
:1000E8007B2877287B28220067082500C704220080
:1000F800E7352500C90A4E08FF3E2200E000FF3020
:1001080003180030E1006108803A803C031D8F2805
:10011800600825004902031C6728932867282400E3
:100128006908090709070907A63E86000330870002
:1001380001082200E40021006608220064048E0001
:1001480021006508220064048E0020000E082400A7
:1001580068050319B528B128B528220067082500C5
:10016800C70422006D08860002308700F030C03FC7
:100178000030C13F24006B0821006702031CC72818
:10018800062FC728062F67082200E000E101240097
:100198006E0786002200610824006F3D8700010871
:1001A8002500C6002100E70A22006D0886000230FB
:1001B8008700F130C03F0030C13F24006B082100A8
:1001C8006702031CEA28062FEA28062F6708220080
:1001D800E000E10124006E07860022006108240087
:1001E8006F3D870001082500C5002100E70A2500AA
:1001F800450847052200E00025004508460522007D
:10020800E100600603190C290A290C292500EB01D5
:100218002500480803191B2912291B296B080319F3
:1002280016291829913160292500C80116296B085B
:10023800031D162920291629C201C20A4108031DD7
:1002480016292729162922006D0886000230870002
:100258000030C03F0130C13F25005E08031D062F56
:100268003629062F403024006A02031C3E29062F37
:100278003E29062F6A08A03E860087018101810A6F
:100288002400EA0A2500C101C10A162904304A06D9
:10029800031D8C2A50298C2A24006908090709079C
:1002A8000907A13E8600033087000108E800250001
:1002B800C901112AC3012100660822008E0021000D
:1002C800650822008E0020000E0824006805031926
:1002D80071296F297129250043142100660822001D
:1002E8008E002100650822008E0020000E082400E0
:1002F800680503198329812983292500C31421004E
:10030800660822008E002100650822008E00200069
:100318000E082400680503199529932995292500B5
:1003280043152100660822008E002100650822007E
:100338008E0020000E08240068050319A729A529A6
:10034800A7292500C3152100660822008E00210078
:10035800650822008E0020000E0824006805031995
:10036800B929B729B92925004316210066082200B2
:100378008E002100650822008E0020000E0824004F
:1003880068050319CB29C929CB292500C3162100E3
:10039800660822008E002100650822008E002000D9
:1003A8000E08240068050319DD29DB29DD2925004D
:1003B80043172100660822008E00210065082200EC
:1003C8008E0020000E08240068050319EF29ED2986
:1003D800EF292500C31722006D0886000230870028
:1003E8002E30C03F0130C13F25005E08031D062F97
:1003F800FE29062F403024006A02031C062A062F15
:10040800062A062F6A08A03E8600870125004308B1
:1004180081002400EA0A2500C90A4D084902031C84
:100428005E29172A5E29C3012200E801E80A25008F
:10043800C901362A2100660822008E0021006508BD
:1004480022008E0020000E08240068050319322AB5
:100458002E2A322A220068082500C3042200E83523
:100468002500C90A4E08FF3E2200E000FF300318AD
:100478000030E1006108803A803C031D462A60088C
:1004880025004902031C1E2A4A2A1E2A240069083C
:10049800090709070907A63E8600033087000108F7
:1004A8002200E50021006608220065048E00210074
:1004B8006508220065048E0020000E0824006805E7
:1004C80003196C2A682A6C2A220068082500C304CC
:1004D80022006D088600023087004230C03F01309C
:1004E800C13F25005E08031D062F7B2A062F4030DA
:1004F80024006A02031C832A062F832A062F6A080F
:10050800A03E860087012500430881009131D0294B
:100518004A0BF52B902AF52B2400690809070907CF
:100528000907A43E86000330870001082500CC0097
:1005380024006908090709070907A53E860001087C
:100548002500CB00C901762B22006D0886000230F9
:1005580087004930C03F0130C13F24006B082100AB
:100568006702031CBA2A062FBA2A062F6708220038
:10057800E000E10124006E078600220061082400E3
:100588006F3D870001082200EC002100E70A2200E5
:100598006C1CD92AD02AD92A25004C0822008E00A2
:1005A80025004B0822008E00E12A2100660822005F
:1005B8008E002100650822008E00EC1CEE2AE52A38
:1005C800EE2A25004C0822008E0025004B08220048
:1005D8008E00F62A2100660822008E002100650898
:1005E80022008E006C1D032BFA2A032B25004C08D1
:1005F80022008E0025004B0822008E000B2B2100C4
:10060800660822008E002100650822008E00EC1D7D
:10061800182B0F2B182B25004C0822008E002500C4
:100628004B0822008E00202B2100660822008E0035
:100638002100650822008E006C1E2D2B242B2D2BEB
:1006480025004C0822008E0025004B0822008E0051
:10065800352B2100660822008E0021006508220043
:100668008E00EC1E422B392B422B25004C08220011
:100678008E0025004B0822008E004A2B21006608B8
:1006880022008E002100650822008E006C1F572B67
:100698004E2B572B25004C0822008E0025004B08B6
:1006A80022008E005F2B2100660822008E002100A8
:1006B800650822008E00EC1F6C2B632B6C2B250029
:1006C8004C0822008E0025004B0822008E00742B57
:1006D8002100660822008E002100650822008E0095
:1006E8002500C90A4D084902031CA82A7C2BA82A00
:1006F80022006D088600023087008C30C03F013030
:10070800C13F24006B0821006702031C8E2B062FB3
:100718008E2B062F67082200E000E10124006E07F7
:1007280086002200610824006F3D8700010822002E
:10073800E9002100E70A2500C901BB2B2200691C3A
:10074800B02BA72BB02B25004C0822008E002500CB
:100758004B0822008E00B82B2100660822008E006C
:100768002100650822008E00E9362500C90A4E08D6
:10077800FF3E2200E000FF3003180030E10061086E
:10078800803A803C031DCB2B600825004902031CDE
:10079800A22BCF2BA22B24006908090709070907F8
:1007A800A63E86000330870001082200EB00691C82
:1007B800EA2BDF2BEA2B25004C0822006B048E0065
:1007C80025004B0822006B048E00162921006608BC
:1007D80022006B048E002100650822006B048E0045
:1007E80016294A08031D1629FA2B1629C9013E2C79
:1007F8002100660822008E002100650822008E0074
:100808002100660822008E002100650822008E0063
:100818002100660822008E002100650822008E0053
:100828002100660822008E002100650822008E0043
:100838002100660822008E002100650822008E0033
:100848002100660822008E002100650822008E0023
:100858002100660822008E002100650822008E0013
:100868002100660822008E002100650822008E0003
:100878002500C90A4D084902031CFC2B442CFC2BFB
:10088800C901502C2100660822008E00210065084D
:1008980022008E002500C90A4E084902031C462C76
:1008A8001629462C1629103025005006031DB92C90
:1008B8005E2CB92C22006D08860002308700C030FB
:1008C800C03F0130C13F24006B0821006702031CB0
:1008D800702C062F702C062F67082200E000E1011B
:1008E80024006E0786002200610824006F3D8700FF
:1008F80001082200EA002100E70A22006A08250010
:10090800BB00BC0122006D08860002308700C3309E
:10091800C03F0130C13F24006B0821006702031C5F
:10092800982C062F982C062F67082200E000E1017A
:1009380024006E0786002200610824006F3D8700AE
:1009480001082200EA002100E70A22006A08E00004
:10095800E101E100E00160082500BB042200610814
:100968002500BC04C801C80A162911305006031D09
:10097800FA2CBF2CFA2C0130BB020030BC3B3B08E0
:100988003C040319D22CC92CD22C48080319162967
:10099800CE2C162903302100E70016294808031930
:1009A8001829D72C1829C201C20AC101C10A22007C
:1009B8006D08860002308700DA30C03F0130C13F41
:1009C80025005E08031D062FEA2C062F4030240060
:1009D8006A02031CF22C062FF22C062F6A08A03E8E
:1009E800860087018101810AEA0A18290830220055
:1009F8006606031D3C2E012D3C2E250050082400C0
:100A0800E9000730E90522006D08860002308700FA
:100A1800E630C03F0130C13F24006B082100670267
:100A2800031C192D062F192D062F24006908090704
:100A380009070907A03E86000330870021006708E0
:100A48002200E000E10124006E0784002200610812
:100A580024006F3D8500000881002100E70A22007C
:100A68006D08860002308700E730C03F0130C13F83
:100A780024006B0821006702031C452D062F452D15
:100A8800062F24006908090709070907A13E8600FF
:100A980003308700210067082200E000E1012400FC
:100AA8006E0784002200610824006F3D850000085D
:100AB80081002100E70A22006D08860002308700C5
:100AC800E830C03F0130C13F24006B0821006702B5
:100AD800031C712D062F712D062F240069080907A4
:100AE80009070907A23E860003308700210067082E
:100AF8002200E000E10124006E0784002200610862
:100B080024006F3D8500000881002100E70A2200CB
:100B18006D08860002308700E930C03F0130C13FD0
:100B280024006B0821006702031C9D2D062F9D2DB4
:100B3800062F24006908090709070907A33E86004C
:100B480003308700210067082200E000E10124004B
:100B58006E0784002200610824006F3D85000008AC
:100B680081002100E70A22006D0886000230870014
:100B7800EA30C03F0130C13F24006B082100670202
:100B8800031CC92D062FC92D062F24006908090743
:100B980009070907A43E860003308700210067087B
:100BA8002200E000E10124006E07840022006108B1
:100BB80024006F3D8500000881002100E70A22001B
:100BC8006D08860002308700EB30C03F0130C13F1E
:100BD80024006B0821006702031CF52D062FF52D54
:100BE800062F24006908090709070907A53E86009A
:100BF80003308700210067082200E000E10124009B
:100C08006E0784002200610824006F3D85000008FB
:100C180081002100E70A22006D0886000230870063
:100C2800EC30C03F0130C13F24006B08210067024F
:100C3800031C212E062F212E062F240069080907E0
:100C480009070907A63E86000330870021006708C8
:100C58002200E000E10124006E0784002200610800
:100C680024006F3D8500000881002100E70A16294D
:100C7800203025005006031D462E432E462EC20165
:100C8800C101162921305006031D6B2E4C2E6B2EE8
:100C980022006D08860002308700F530C03F013021
:100CA800C13F25005E08031D062F5B2E062F40302E
:100CB80024006A02031C632E062F632E062F6A087F
:100CC800A03E8600870125004208810044292200B1
:100CD8006D08860002308700FA30C03F0130C13FFE
:100CE80024006B0821006702031C7D2E062F7D2E31
:100CF800062F67082200E000E10124006E07860045
:100D08002200610824006F3D870001082500D000FB
:100D18002100E70A25005008EC003F30EC056C087C
:100D280021008E0016296D08860002308700403F9A
:100D3800E000413FE1006108003A0319A72E013A9B
:100D48000319CB2EFF2E6008003A031916298B3A97
:100D5800913103196A29073A031979298031103A20
:100D680003190A2F393A0319082F033A9331031943
:100D78005E2B703A03194F2C8031013A03190C2F5E
:100D8800273A0319BE28013A0319E128FF2E600803
:100D9800003A031930292E3A0319F8296C3A031935
:100DA800752A0B3A0319B12AC53A0319852B4C3A0F
:100DB8000319672C033A03198F2C193A0319E42CE9
:100DC8003C3A0319102D013A03193C2D0F3A031927
:100DD800682D013A0319942D033A0319C02D013ADD
:100DE8000319EC2D073A0319182E193A0319552E31
:100DF8000F3A0319742E6D08860002308700003000
:100E0800C03FC13F9231092A9131EE299131BB2966
:100E18009431722C8A317D2A8A31932A8A317F2A29
:100E28008A31932A8A31932A8A31932A8A31932ADA
:100E38008A31932A8A31932A8A31932A8A31932ACA
:100E48008A31932A8A31932A8A31932A8A31932ABA
:100E58008A31932A8A31932A8A31932A8A31932AAA
:100E68008A31932A8A31932A8A31932A8A31932A9A
:100E78008A31932A8A31932A8A31932A8A31932A8A
:100E88008A31932A8A31932A8A31932A8A31932A7A
:100E98008A31932A8A31932A8A31932A8A31932A6A
:100EA8008A31932A8A31932A8A31932A8A31932A5A
:100EB8008A31932A8A31932A8A31932A8A31932A4A
:100EC8008A31932A8A31932A8A31932A8A31932A3A
:100ED8008A31932A8A31932A8A31932A8A31932A2A
:100EE8008A31932A8A31932A8A31932A8A31932A1A
:100EF8008A31932A8A31932A8A31932A8A31932A0A
:100F08008A31932A8A31932A8A31932A8A31932AF9
:100F18008A31932A8A31932A8A31932A8A31932AE9
:100F28008A31932A8A31932A8A31932A8A31932AD9
:100F38008A31932A8A31932A8A31932A8A31932AC9
:100F48008A31932A8A31932A8A31932A8A31932AB9
:100F58008A31932A8A31932A8A31932A8A31932AA9
:100F68008A31932A8A31932A8A31932A8A31932A99
:100F78008A31932A8A31932A8A31932A8A31932A89
:100F88008A31932A8A31932A8A31932A8A31932A79
:100F98008A31932A8A31932A8A31932A8A31932A69
:100FA8008A31932A8A31932A8A31932A8A31932A59
:100FB8008A31932A8A31932A8A31932A8A31932A49
:100FC8008A31932A8A31932A8A31932A8A31932A39
:100FD8008A31932A8A31932A8A31932A8A31932A29
:100FE8008A31932A8A31932A640080010131890B5E
:040FF800F92F003499
:1010000088318F288831912888317A288831912831
:1010100088317A2888317B28883181288831A8282E
:1010200088318528883183288831922888319D2805
:1010300088317A288C316C2C8C316F2C8C319B2C24
:101040008C316F2C8C319B2C8C31562C8C315C2C40
:101050008C31872C8C31622C8C315F2C8C31712C33
:081060008C317C2C8C319B2C9F
:10106E002500DD01D601D301D201D8012400EC0107
:10107E0025002708860028088700043081132706DC
:10108E00A700860028088700043081132706A700D2
:10109E0023006C0886006D08870081132100E20191
:1010AE00E301E4012500A201A301A4016A20883115
:1010BE0003302200EA00EB01EC01ED01EE01EF013D
:1010CE0075229631442E2000500E890C0339031DD3
:1010DE000800510884000D300402031808008831FE
:1010EE000435003E820008002100E217083024007B
:1010FE00ED0008009C31E82C9D31DE2DE8302100FA
:10110E00E0000230E10062140130E300E217080053
:10111E009A31E92AB1285408E63E2100E000023057
:10112E00E10062140130E300E21708002100E2172B
:10113E0020005408E63E86000230870052088100E7
:10114E00080002302200EA00EB01EC01ED01EE0195
:10115E00EF01752A2000520BC52850081F39031DB8
:10116E00C5282100E217033020005106031DC328B5
:10117E0001302500DB00C5282500DB0120005208C8
:10118E00031D080050081F39023A031D08005408B9
:10119E000F390319080054080F392300E0000330FB
:1011AE00600203180800203024006D06031D08009D
:1011BE002100E2172000D41BF52854080F39090727
:1011CE00AD3E860002308700403F2300E500413FE0
:1011DE00E600200054080F39B33E052954080F3994
:1011EE000907A73E860002308700403F2300E50036
:1011FE00413FE600200054080F39B63E8600010834
:10120E002300E40064181629FB30E000FF30E100F3
:10121E0065086005E50066086105E60019290430D9
:10122E006504E5002000D41B292954080F3909074D
:10123E00AD3E86000230870023006508C03F660879
:10124E00C13F352954080F390907A73E86000230E1
:10125E00870023006508C03F6608C13F03302000A9
:10126E005106031D5B29230065088600660887006A
:10127E00811F4F292000D41B482954080F39B33E33
:10128E004B2954080F39B63E860002308700811470
:10129E00230065088600660887000115650886002C
:1012AE006608870081170800043023006506E500F4
:1012BE008600660887006508811F802986006608FB
:1012CE0087008113650886006608870005300117C0
:1012DE002200EA00EB01230066082200ED00230045
:1012EE0065082200EC000230EE00EF017522883115
:1012FE0084298600660887000117043023006506DE
:10130E00E500E41890296508860066088700811FAD
:10131E00B7292000D41B972954080F39B33E9A29B8
:10132E0054080F39B63E8600023087008110230024
:10133E0065088600660887003B308105053022006F
:10134E00EA00EB01230066082200ED002300650889
:10135E002200EC000230EE00EF0175228831BD292B
:10136E0065088600660887003B308105200054081A
:10137E000F39983E2300E0000E30E101E13D600898
:10138E00E2006108E300620886006308870001102E
:10139E00080024006D03031DDD293D008E1ADD2992
:1013AE0090011214121602302400ED003D001019A7
:1013BE00121DE4291011032488313D008E1CEA29E8
:1013CE002000121108001018121CF62994228831E0
:1013DE002100121504302400ED003D001010101AEB
:1013EE00121EFB29F32388313D00101F172A121FEE
:1013FE000B2A73302200EA00EB01EC01ED01EE0145
:10140E00EE0AEF01752288313D001013C123883199
:10141E005708031DD7035708031D172A15238831B4
:10142E003D00901A921E1D2AD32388319018921CCB
:10143E002E2AFF302200EA007F30EB00EC01ED0196
:10144E00EE01EE0AEF01752288313D009301043062
:10145E0024006D020318362A2000121108003D00E8
:10146E00921D722A2300EB016F2A0F082300EF0052
:10147E006F0CEA00EA0C6A0C0F392500D9003D000A
:10148E00901123006F194F2A25005908B33E522A96
:10149E0025005908B63E86000230870001308106CD
:1014AE005908031D5D2A80238831692A7230220073
:1014BE00EA00EF30EB01EC000130ED00EE01EF0140
:1014CE007522883123000430EB0A6B020318722A4E
:1014DE003D0090193C2A2000121108006B08003ABA
:1014EE000319812A7F3A03198E2A932A9B319D2B49
:1014FE009A314F2A6A08FF3E031C0800840075309B
:10150E00040203180800873104350E3E82006A0873
:10151E00FF3A0319932A932A0800210012113D0065
:10152E009301900198010E302200E1009930E00005
:10153E00E20160088600610887008101E00A031954
:10154E00E10A0230E20A6202031CA02A16303D00B4
:10155E0091009F3097007B3092002200E3016308D8
:10156E0009070907203E860000308701C03FC13FB2
:10157E00C23FC33F0C30E30A6302031CB62A3D0090
:10158E000E1796010E120E1390112100E201250086
:10159E00A201A301A4013D009019CB2A0130250020
:1015AE00D500D400D301D201DA012200E301633564
:1015BE00A73E8600023087000030C03FC13F633532
:1015CE00AD3E86000030C03FC13F6308B63E860088
:1015DE0081016308B33E860003308101E30A630292
:1015EE00031CDE2A28302500A7001630A8013D0076
:1015FE0098002000A3015030A2001030A10004304A
:10160E00A000A0172500E8012600A001A101A2015B
:10161E00A3012500D1012400ED0108002500550885
:10162E00031D08000130D5005408031D08000130C9
:10163E00D400023024006C06031D382B2500270829
:10164E008600280887004131810127088600280876
:10165E0087004830810027088600280887008117F8
:10166E0008006C0B08002500D80123006E0A8600C6
:10167E0010308701810050302200E000E10123008C
:10168E006E08023E860022006008C03F6108C13F1E
:10169E0023006E088600043081006E08860001303B
:1016AE0081172500D80023006C08013E2200E000BF
:1016BE00003023006D3D2200E100600886006108C5
:1016CE008700103081005030E000E10123006C08EB
:1016DE0086006D088700423122006008C03F610815
:1016EE00C13F23006C0886006D08870080308100A2
:1016FE0008002D30D70023006F08FD39031DB92BCC
:10170E006F363F3909070907203EEE00EC00FF391E
:10171E00031D0030ED0004306C06EC006E088600F0
:10172E008701010C890C0F390D3A031DB72B503070
:10173E00860023006E08023E84008501003FE7000C
:10174E00013FE80067088400680885000830E9005A
:10175E0069080319B62B12001E00E90BB22B3728AD
:10176E009F31212FFD306F05E700043A031D08005D
:10177E009731322F01302600A0070030A13DA23D47
:10178E00A33D25005A08031D0800D10A5108031D68
:10179E000800FF30D1000800181CF12B23006E0842
:1017AE008600803087010106031DEF2B25002708D8
:1017BE0086002808870084300106031DEF2B2300C6
:1017CE006E0886000C30870181006E088600811736
:1017DE003D00181090120800121510128E140130D0
:1017EE002500DA00D10175302200EA00EB01EC0190
:1017FE00ED01EE01EF01752A2500DA0174302200A9
:10180E00EA000030EB01EC01ED01EE01EF01752273
:10181E0088313D008E101211101D172C1011132C33
:10182E002500D10108002500DD01D601D301D2012A
:10183E00D8012400EC01250027088600280887001F
:10184E00043081132706A70086002808870004307D
:10185E0081132706A70023006C0886006D088700F9
:10186E0081132100E201E301E4012500A201A3019D
:10187E00A4014F248C3103302000D8000030D90150
:10188E00DA01DB01DC01DD0160269431AD240800B4
:10189E002000500E890C0339031D0800912C2100E5
:1018AE00E21708302400ED0008009C3101240800E6
:1018BE009D3162250800E8302100E0000230E10091
:1018CE0062140130E300E21708009A319B220800EF
:1018DE009C2408005408E63E2100E0000230E1009E
:1018EE0062140130E300E21708002100E217200025
:1018FE005408E63E86000230870052088100080038
:10190E000230D8000030D901DA01DB01DC01DD0143
:10191E0060260800510884000D30040203180800E8
:10192E00883104351A3E820008002000520BB02C7C
:10193E0050081F39031DB02C2100E2170330200080
:10194E005106031DAE2C01302500DB00B02C250006
:10195E00DB0120005208031D080050081F39023A0F
:10196E00031D080054080F390319080054080F39D5
:10197E00FA0003307A0203180800203024006D06A6
:10198E00031D08002100E2172000D41BDF2C540891
:10199E000F390907AD3E860002308700403F210017
:1019AE00EB00413FEC00200054080F39B33EEF2C02
:1019BE0054080F390907A73E860002308700403FC2
:1019CE002100EB00413FEC00200054080F39B63ED9
:1019DE00860001082100EA006A18002DFB30FA008B
:1019EE00FF30FB006B087A05EB006C087B05EC0002
:1019FE00032D04306B04EB002000D41B132D540870
:101A0E000F390907AD3E86000230870021006B08B2
:101A1E00C03F6C08C13F1F2D54080F390907A73E60
:101A2E0086000230870021006B08C03F6C08C13F62
:101A3E00033020005106031D452D21006B08860042
:101A4E006C088700811F392D2000D41B322D5408BD
:101A5E000F39B33E352D54080F39B63E860002308D
:101A6E008700811421006B0886006C088700011521
:101A7E006B0886006C08870081170800043021006F
:101A8E006B06EB0086006C0887006B08811F6A2DC1
:101A9E0086006C08870081136B0886006C0887002F
:101AAE00053001172000D800D90121006C08200054
:101ABE00DB0021006B082000DA000230DC00DD01C3
:101ACE0060268C316E2D86006C088700011704305D
:101ADE0021006B06EB00EA187A2D6B0886006C0865
:101AEE008700811FA12D2000D41B812D54080F3992
:101AFE00B33E842D54080F39B63E8600023087005F
:101B0E00811021006B0886006C0887003B30810530
:101B1E0005302000D800D90121006C082000DB0020
:101B2E0021006B082000DA000230DC00DD016026A7
:101B3E008C31A72D6B0886006C0887003B30810521
:101B4E00200054080F39983EFA000E30FB01FB3D81
:101B5E007A082100E8007B08E90068088600690819
:101B6E0087000110080024006D03031DC72D3D00E2
:101B7E008E1AC72D90011214121602302400ED0099
:101B8E003D001019121DCE2D1011E9278C313D008C
:101B9E008E1CD42D2000121108001018121CE02DDE
:101BAE0029278C312100121504302400ED003D0050
:101BBE001010101A121EE52DD7278C313D00101F64
:101BCE00012E121FF52D73302000D800D901DA0135
:101BDE00DB01DC01DC0ADD0160268C313D001013D7
:101BEE00A5278C315708031DD7035708031D012E57
:101BFE0082268C313D00901A921E072EB7278C310B
:101C0E009018921C182EFF302000D8007F30D9007B
:101C1E00DA01DB01DC01DC0ADD0160268C313D00DE
:101C2E009301043024006D020318202E200012119F
:101C3E0008003D00921D5D2E2000DF0104305F0282
:101C4E0003185D2E3D00901D5D2E0F082300EF0042
:101C5E006F0C2000DE00DE0C5E0C0F392500D90063
:101C6E003D00901123006F19402E25005908B33EF8
:101C7E00432E25005908B63E8600023087000130FB
:101C8E0081065908031D4E2EE3268C315A2E7230D2
:101C9E002000D800EF30D901DA000130DB00DC0182
:101CAE00DD0160268C312000DF0A252E2000121166
:101CBE000800672E9B313A2308009A31042208004F
:101CCE005908003A03196F2E7F3A03197C2E812E84
:101CDE005808FF3E031C08008400753004020318E8
:101CEE00080090310435003E82005808FF3A03196F
:101CFE00812E812E080025005508031D0800013095
:101D0E00D5005408031D08000130D4000230240011
:101D1E006C06031DA52E25002708860028088700BF
:101D2E00413181012708860028088700483081004C
:101D3E002708860028088700811708006C0B08000A
:101D4E002500D80123006E0A86001030870181001D
:101D5E005030F000F1016E08023E86007008C03F60
:101D6E007108C13F6E088600043081006E0886003F
:101D7E00013081172500D80023006C08013EF000C9
:101D8E0000306D3DF100700886007108870010303C
:101D9E0081005030F000F1016C0886006D0887005C
:101DAE0042317008C03F7108C13F6C0886006D0853
:101DBE0087008030810008002D30D70023006F0887
:101DCE00FD39031D1F2F6F363F3909070907203EC6
:101DDE00EE00EC00FF39031D0030ED0004306C0600
:101DEE00EC006E0886008701010C890C0F390D3A44
:101DFE00031D1C2F5030860023006E08023E840007
:101E0E008501003F2100ED00013FEE006D088400CA
:101E1E006E0885000830EF006F0803191A2F1200A4
:101E2E001E00EF0B162F1A2408009E315E260800A6
:101E3E00FD306F052100ED00043A031D08009531B9
:101E4E0088250800210012113D0093019001980190
:101E5E000E30F1009930F000F20170088600710822
:101E6E0087008101F00A0319F10A0230F20A7202A8
:101E7E00031C342F163091009F3097007B30920058
:101E8E00F301730809070907203E86000030870119
:101E9E00C03FC13FC23FC33F0C30F30A7302031C65
:101EAE00482F0E1796010E120E1390112100E2010B
:101EBE002500A201A301A4013D0090195C2F013061
:101ECE002500D500D400D301D201DA01F301733518
:101EDE00A73E8600023087000030C03FC13F7335F9
:101EEE00AD3E86000030C03FC13F7308B63E86004F
:101EFE0081017308B33E860003308101F30A730239
:101F0E00031C6E2F28302500A7001630A8013D00B7
:101F1E0098002000A3015030A2001030A100043020
:101F2E00A000A0172500E8012600A001A101A20132
:101F3E00A3012500D1012400ED0108000130260087
:101F4E00A0070030A13DA23DA33D25005A08031D68
:101F5E000800D10A5108031D0800FF30D100080007
:101F6E00181CD52F23006E088600803087010106CD
:101F7E00031DD32F250027088600280887008430EC
:101F8E000106031DD32F23006E0886000C30870137
:101F9E0081006E08860081173D001810901208000F
:101FAE00121510128E1401302500DA00D101753091
:101FBE002000D8000030D901DA01DB01DC01DD019F
:101FCE00602608002500DA0174302000D8000030A9
:101FDE00D901DA01DB01DC01DD0160268C313D0027
:101FEE008E101211101DFD2F1011F92F2500D10189
:101FFE0008008E31612E8E31812E8E31642E8E31FF
:10200E00812E8E31812E8E31812E8E31812E8E310A
:10201E00812E8E31812E8E31812E8E31812E8E31FA
:10202E00812E8E31812E8E31812E8E31812E8E31EA
:10203E00812E8E31812E8E31812E8E31812E8E31DA
:10204E00812E8E31812E8E31812E8E31812E8E31CA
:10205E00812E8E31812E8E31812E8E31812E8E31BA
:10206E00812E8E31812E8E31812E8E31812E8E31AA
:10207E00812E8E31812E8E31812E8E31812E8E319A
:10208E00812E8E31812E8E31812E8E31812E8E318A
:10209E00812E8E31812E8E31812E8E31812E8E317A
:1020AE00812E8E31812E8E31812E8E31812E8E316A
:1020BE00812E8E31812E8E31812E8E31812E8E315A
:1020CE00812E8E31812E8E31812E8E31812E8E314A
:1020DE00812E8E31812E8E31812E8E31812E8E313A
:1020EE00812E8E31812E8E31812E8E31812E8E312A
:1020FE00812E8E31812E8E31812E8E31812E8E311A
:10210E00812E8E31812E8E31812E8E31812E8E3109
:10211E00812E8E31812E8E31812E8E31812E8E31F9
:10212E00812E8E31812E8E31812E8E31812E8E31E9
:10213E00812E8E31812E8E31812E8E31812E8E31D9
:10214E00812E8E31812E8E31812E8E31812E8E31C9
:10215E00812E8E31812E8E31812E8E31812E8E31B9
:10216E00812E8E31812E8E31812E8E31812E8E31A9
:10217E00812E8E31812E8E31812E8E31812E8E3199
:10218E00812E8E31812E8E31812E8E31812E8E3189
:10219E00812E8E31812E8E31812E8E31812E8E3179
:1021AE00812E8E31812E8E31812E8E31812E8E3169
:1021BE00812E8E31812E8E31812E8E31812E8E3159
:0621CE00812E8E31812EEE
:1021E40024006A0803192629F82826292100121137
:1021F4002200A030E001E00AE10024006A08220085
:10220400E20002309C317124903161082500BA004B
:10221400220060082500B9002100121522006D0873
:102224008600023087007230C03F0230C13F250073
:10223400390886003A088700811F23295929232950
:1022440059292400EA01F2282200EC016D088600D5
:10225400023087007630C03F0230C13F6C08031D56
:10226400F2285929F22859296D088600023087007E
:10227400403FEA00413FEB006B08003A031946294E
:10228400023A03194B2952296A08003A0319F22821
:1022940052296A08723A03191929043A0319302990
:1022A4006D088600023087000030C03FC13F6630B1
:1022B4002200ED00E301E30A8631972E2200E301B8
:1022C4006D088600023087008B30C03F0030C13F6C
:1022D4006308031D71296F2971298731062F6D0841
:1022E4008600023087008C30C03F0030C13F24009C
:1022F4006B0821006702031C82296F2982296F2938
:1023040067082200E000E10124006E078600220035
:10231400610824006F3D870001082500D0002100DA
:10232400E70A25005008CF00C030CF0540304F06E3
:10233400031DA3299E29A3296C09500522008E00A0
:10234400602980304F06031DD329A929D3292000F1
:102354000E082500C4006C08C4056C095005220051
:102364008E006D088600023087009C30C03F00302C
:10237400C13F25005E08031D6F29C1296F29403024
:1023840024006A02031CC9296F29C9296F296A0814
:10239400A03E860087012500440881002400EA0A43
:1023A400602950082200E600F830E6051830660679
:1023B400031DDD29DF298431572C25005008240012
:1023C400E9000730E90522006D0886000230870025
:1023D400A530C03F0030C13F24006B0821006702D4
:1023E400031CF5296F299331442B2400E601E701EE
:1023F400E001E101E401E501E201E3019931C021D9
:1024040091318A31942291313F3021008E008931FB
:10241400D0219131203024006D02031C092A3D0093
:102424008E18092A64302200E500E401E40AA62A91
:102434002500BF0122006508860002308700243091
:10244400C03F0230C13F023025004002031C2D2A48
:10245400CC2A2D2ACC2A3F352C3E86000330870017
:10246400403FE900413FEA00BD013F35303E860070
:1024740003308700403F2200E000413FE100600854
:10248400E2007F306105E3002500690886006A08E0
:102494008700423122006208C03F6308C13F250023
:1024A4006908013E2200E000003025006A3D220058
:1024B400E100600886006108870040308100250043
:1024C400690886006A08870040308105690886002B
:1024D4006A0887008115690886006A0887008117E1
:1024E400220065088600023087003230C03F023087
:1024F400C13F2500690886006A088700811F852A74
:10250400CC2A852ACC2A690886006A0887004131CA
:102514000108BD002200E40165088600023087003E
:102524003530C03F0230C13F6408031D9C2ACC2AC9
:102534009C2ACC2A25003D080319362AA22A362AC9
:10254400C00A0130BF061C2A6508860002308700D5
:10255400403FE000413FE1006108003A0319B62A18
:10256400023A0319BB2AC52A6008003A03191A2A39
:10257400C52A6008243A0319252A163A03197B2A26
:10258400073A0319962A650886000230870000304E
:10259400C03FC13F62302200E200182B2500BE017B
:1025A400220062088600023087004B30C03F0230B0
:1025B400C13F25004008031DE22A3B2BE22A3B2BA6
:1025C4003E35303E860003308700403F2400EE0055
:1025D400413FEF002100E70125003E352C3E8600F7
:1025E40003308700403F2200E000413FE1006008E3
:1025F400860061088700413101082400EB002200B5
:1026040062088600023087005330C03F0230C13F69
:1026140024006B08210067020318132B3B2B132B98
:102624003B2B2500C0030130BE06D22A6208860077
:1026340002308700403FE000413FE1006108003A7A
:102644000319282B023A03192D2B342B6008003A66
:102654000319D02A342B60084B3A0319DB2A183AA1
:1026640003190A2B62088600023087000030C03F3D
:10267400C13F60302200ED00EC01EC0A91313629B3
:102684008731062F67082200E000E10124006E076D
:1026940086002200610824006F3D870001082500A0
:1026A400CE002100E70A22006D0886000230870070
:1026B400A630C03F0030C13F24006B0821006702F0
:1026C400031C672B422B672B422B67082200E00078
:1026D400E10124006E0786002200610824006F3D9A
:1026E400870001082500CD002100E70A24006908BD
:1026F400090709070907A23E86000330870001087D
:102704002100E60024006908090709070907A33E18
:1027140086000330870001082100E50024006908D1
:10272400090709070907A03E86000330870001084E
:102734002500CA000F30CA050C304A06031DA32B1E
:10274400A52B81314A29EB01EB0A2400690809070A
:1027540009070907A13E8600033087000108E80045
:102764002500C9019F2CC7012100660822008E00A4
:102774002100650822008E0020000E082400680550
:102784000319C82BC62BC82B250047142100660843
:1027940022008E002100650822008E0020000E0811
:1027A400240068050319DA2BD82BDA2B2500C7146B
:1027B4002100660822008E002100650822008E0098
:1027C40020000E08240068050319EC2BEA2BEC2BDF
:1027D400250047152100660822008E0021006508A7
:1027E40022008E0020000E08240068050319FE2B29
:1027F400FC2BFE2B2500C7152100660822008E0045
:102804002100650822008E0020000E0824006805BF
:102814000319102C0E2C102C2500471621006608D5
:1028240022008E002100650822008E0020000E0880
:10283400240068050319222C202C222C2500C716FD
:102844002100660822008E002100650822008E0007
:1028540020000E08240068050319342C322C342C73
:10286400250047172100660822008E002100650814
:1028740022008E0020000E08240068050319462C4F
:10288400442C462C2500C71722006D088600023010
:102894008700D630C03F0030C13F24006B082100C0
:1028A4006702031C582C422B582C422B6708220029
:1028B400E000E10124006E07860022006108240084
:1028C4006F3D870001082500C6002100E70A2200A9
:1028D4006D08860002308700D730C03F0030C13F0A
:1028E40024006B0821006702031C7B2C422B7B2CE9
:1028F400422B67082200E000E10124006E078600F5
:102904002200610824006F3D870001082500C500EE
:102914002100E70A2500450847052200E0002500BC
:10292400450846052200E100600603199D2C9B2CF6
:102934009D2C2500EB012500C90A4D084902031C02
:10294400B52BA52CB52BC7012200E701E70A25000A
:10295400C90180317F283D000E122100E21BF22CB8
:102964002500A21FC12C02302400EC0025005208CF
:10297400031DBD2C2F252500D401D50108002300FB
:102984006C08013EF50000306D3DF60075088600C8
:1029940076088700103081005030F500F6016C088D
:1029A40086006D08870042317508C03F7608C13F34
:1029B4006C0886006D0887000C3081006C08860066
:1029C4006D088700811725002708860028088700DE
:1029D4000430810027088600280887008117080032
:1029E4002000D01F072D01302400EC0025005308DF
:1029F400031DFE2C2F2594312500D401D501560842
:102A0400031D08008E318226080002302400EC00E9
:102A140023006C08013EF50000306D3DF60075089A
:102A2400860076088700103081005030F500F601EA
:102A34006C0886006D08870042317508C03F76082F
:102A4400C13F6C0886006D088700043081006C0863
:102A540086006D0887008117FE2CD301D201023055
:102A640024006C06031D5B2D23006C08013EF3005B
:102A740000306D3DF4007308860074088700103040
:102A840081006030F300F4016C0886006D08870053
:102A940042317308C03F7408C13F6C0886006D085A
:102AA4008700483081006C0886006D088700811714
:102AB40008002100640820005702031D652D210031
:102AC40063082000560203186E2D57082100E40005
:102AD400200056082100E300EC256030F300F401E7
:102AE4002500270886002808870042317308C03F64
:102AF4007408C13F270886002808870048308100F1
:102B04002708860028088700811708002500270861
:102B14008600280887000030011B0130F5000430CE
:102B24002706A700083024006D06031DA62D2000EB
:102B340052087F393D00960016080319A32D103062
:102B4400A42D04302400ED006C0BE32D6030F30061
:102B5400F4012500270886002808870042317308FD
:102B6400C03F7408C13FEC259431023025005D0656
:102B7400031DC82D2708860028088700043081001B
:102B84002708860028088700811708007508031D98
:102B9400D72D270886002808870048308100270899
:102BA400860028088700811708002708860028085F
:102BB40087000830810027088600280887008117CD
:102BC40008002500A21FE92D25082608A2132400C9
:102BD400EC0108001030F2000030210064021030D3
:102BE400031963020318022E6308F20025005D082E
:102BF400031DFE2D0130012E5D0B022E0230DD007F
:102C040072082100E302031CE40325002708013EA7
:102C1400F0000030283DF10070088600710887003C
:102C2400720881006030DC002100621C2B2E402ED3
:102C340025005C0886008701210060088400610883
:102C4400850000088100E00A0319E10A2500DC0A76
:102C5400F2037208031908001A2E25005C08860086
:102C64008701210060088400610885000008810054
:102C7400E00A0319E10A2500DC0AF20372080319C9
:102C840008002F2E3D000E122100E21B8F2E25007E
:102C9400A21F582E02302400EC0025005208031D08
:102CA400542ED1262500D401D501080023006C0838
:102CB400013E2200E500003023006D3D2200E600C5
:102CC4006508860066088700103081005030E500F2
:102CD400E60123006C0886006D088700423122005B
:102CE4006508C03F6608C13F23006C0886006D0874
:102CF40087000C3081006C0886006D0887008117FE
:102D0400250027088600280887000430810027084A
:102D1400860028088700811708002000D01FA32EF2
:102D240001302400EC0025005308031D9B2ED126FE
:102D340096312500D401D5015608031D08008B31B6
:102D4400152B02302400EC0023006C08013E220005
:102D5400E500003023006D3D2200E6006508860092
:102D640066088700103081005030E500E60123003A
:102D74006C0886006D088700423122006508C03F58
:102D84006608C13F23006C0886006D088700043084
:102D940081006C0886006D08870081179B2ED30183
:102DA400D201023024006C06031D032F23006C089B
:102DB400013E2200E300003023006D3D2200E400C8
:102DC4006308860064088700103081006030E300E7
:102DD400E40123006C0886006D088700423122005C
:102DE4006308C03F6408C13F23006C0886006D0877
:102DF4008700483081006C0886006D0887008117C1
:102E040008002100640820005702031D0D2F210033
:102E14006308200056020318162F57082100E40007
:102E2400200056082100E3009D276030E300E40100
:102E340025002708860028088700423122006308FD
:102E4400C03F6408C13F2500270886002808870082
:102E54004830810027088600280887008117080069
:102E6400250027088600280887000030011B013050
:102E74002200E500043025002706A70008302400BE
:102E84006D06031D522F200052087F393D00960025
:102E9400160803194F2F1030502F04302400ED0072
:102EA4006C0B942F60302200E300E4012500270816
:102EB400860028088700423122006308C03F640866
:102EC400C13F9D279631023025005D06031D762FF4
:102ED4002708860028088700043081002708860018
:102EE400280887008117080022006508031D872F22
:102EF4002500270886002808870048308100270815
:102F04008600280887008117080025002708860006
:102F140028088700083081002708860028088700D1
:102F2400811708002500A21F9A2F25082608A2133E
:102F34002400EC01080010302200E20000302100DF
:102F440064021030031963020318B52F63082200CA
:102F5400E20025005D08031DB12F0130B42F5D0B85
:102F6400B52F0230DD00220062082100E302031CB9
:102F7400E40325002708013E2200E000003025007C
:102F8400283D2200E100600886006108870062088D
:102F9400810060302500DC002100621CE42FFB2F3F
:102FA40025005C0886008701210060088400610810
:102FB400850000088100E00A0319E10A2500DC0A03
:102FC4002200E2032200620803190800D22F250020
:102FD4005C08860087012100600884006108850080
:102FE40000088100E00A0319E10A2500DC0A220036
:102FF400E2032200620803190800E92F9A31622AC9
:103004009A316D2A9A319A2A9A319A2A9A319A2AAD
:103014009A319A2A9A319A2A9A319A2A9A319A2A70
:103024009A319A2A9A319A2A9A319A2A9A319A2A60
:103034009A319A2A9A319A2A9A319A2A9A319A2A50
:103044009A319A2A9A319A2A9A319A2A9A319A2A40
:103054009A319A2A9A319A2A9A319A2A9A319A2A30
:103064009A319A2A9A319A2A9A319A2A9A319A2A20
:103074009A319A2A9A319A2A9A319A2A9A31742A36
:103084009A31812A9A318C2A9A31162A9A31212A24
:103094009A314E2A9A314E2A9A314E2A9A314E2A20
:1030A4009A314E2A9A314E2A9A314E2A9A314E2A10
:1030B4009A314E2A9A314E2A9A314E2A9A314E2A00
:1030C4009A314E2A9A314E2A9A314E2A9A314E2AF0
:1030D4009A314E2A9A314E2A9A314E2A9A314E2AE0
:1030E4009A314E2A9A314E2A9A314E2A9A314E2AD0
:1030F4009A314E2A9A314E2A9A314E2A9A314E2AC0
:103104009A314E2A9A314E2A9A31282A9A31352AEE
:103114009A31402A093402344334003402340134ED
:103124000034C034323409340434003400340134FB
:1031340002340234013400340534243400341034AD
:10314400013404342434023402340534243406347F
:103154000034013405342434013400340134073498
:10316400053481340334083400340234093404341B
:103174000134003402340A34003400340034073497
:103184000534023402344034003400340734053446
:10319400823402344034003400341634033450345E
:1031A4000034723400346F340034673400347234C1
:1031B4000034613400346D3400346D3400346534CB
:1031C4000034723400341234033454340034693417
:1031D40000346E34003479340034463400345034CE
:1031E40000344734003441340034123401340034A0
:1031F40002340234003400341034093412340134FB
:1032040021340034013401340234003401340F34E5
:103214009934E5349834CF3498340434033409347D
:0632240004348C349834E0
:10338000D3219931C9219931E8218A319422993187
:10339000EB293C3021009900980127009B01210076
:1033A0001A1B0800CF2922008C018E013030210029
:1033B0008C0007308E00083023008E0010308C0007
:1033C000383024008C002100951322009D01080054
:1033D0001630970008006D08031D08003D008E019F
:1033E0009201163091009F3097007B3092002100AF
:1033F00012150B178B173D008E19002A8E15FB290D
:1034000001302400ED00080050081F39013A031D67
:103410000800500E890C0339013A031D08005408B6
:103420000319442A5403031D0800442A24302100B0
:10343000E0000330E1000830E300E4016214E21729
:10344000080024302100E0000330E100E21708000A
:1034500057082500A400200056082500A300DF30EF
:10346000A000A501A601A2170800DF302100E0009E
:103470000230E1000730E300E401C130E20008005F
:1034800052082100E217080051088400233004028A
:103490000318080098310435463E820008002000D9
:1034A00050081F39013A031D0800500E890C0339DA
:1034B000013A031D080054080319902A5403031D00
:1034C0000800902A24302100E0000330E100083099
:1034D000E300E4016214E217080024302100E00058
:1034E0000330E100E217080057082500A40020007F
:1034F00056082500A300DF30A000A501A601A217F1
:103500000800DF302100E0000230E1000730E30076
:10351000E401C130E200080052082100E21708006F
:103520005108840023300402031808009831043540
:10353000003E820008002000E001E101D42A2100C1
:10354000E21725005B0BDF2A2000E014DF2A2100B0
:10355000E217DF2A2100E2172000D41BBA2A540800
:103560000F390907AD3E860002308700403FF0006A
:10357000413FC42A54080F390907A73E860002308C
:103580008700403FF000413FF1007008860071085D
:103590008700811FDF2A7008860071088700011DDF
:1035A000DF2A0130E000DF2A50081F3903199F2A63
:1035B000013A0319A72A033A0319AA2ADF2A21008C
:1035C000E21F08006030E000E10162140230E30015
:1035D00008002000E001E101252B2100E217250071
:1035E0005B0B302B2000E014302B2100E217302B36
:1035F0002100E2172000D41B092B54080F390907BA
:10360000AD3E860002308700403F2200E000413F8F
:10361000142B54080F390907A73E86000230870093
:10362000403F2200E000413FE10060088600610861
:103630008700811F302B6008860061088700011D0C
:10364000302B01302000E000302B50081F390319C7
:10365000ED2A013A0319F52A033A0319F82A302B07
:103660002100E21F08006030E000E1016214023036
:10367000E300080025004B30E201E101E0000830E2
:10368000DF01E301E401E5001A30F40001305023CA
:103690009B311E30F400023050232500DE0108006B
:1036A000F900741D562BF0016D239B31F41C5C2B2B
:1036B000F001F00A79086D237908983EF5000E3084
:1036C000F601F63D7508F7007608F80077088600E1
:1036D00078088700740881000800F2002030F300A9
:1036E0007008F100F1357208090709077107090729
:1036F0000907F30773088600870181137008031D0B
:103700008B2B7235AD3E8600023087007308C03FB8
:103710000030C13F942B7235A73E860002308700EF
:103720007308C03F0030C13F730886008701011352
:103730007308043E86000117080025004B30E201A3
:10374000E101E0000830DF01E301E401E5001A30A7
:103750002200E4000130B4239B311E30E40002302B
:10376000B4232500DE010800E900641DBA2BE00146
:10377000D1239B31E41CC02BE001E00A6908D1236E
:103780006908983EE5000E30E601E63D6508E70071
:103790006608E800670886006808870064088100FA
:1037A0000800E2002030E3006008E100E135620833
:1037B00009070907610709070907E3076308860086
:1037C000870181136008031DEF2B6235AD3E860033
:1037D000023087006308C03F0030C13FF82B6235DC
:1037E000A73E8600023087006308C03F0030C13F1B
:1037F00063088600870101136308043E86000117F1
:103800000800803020005006031D0800C030210051
:10381000E200642CF7302100E0009830E100123023
:10382000E300E40108005208031D3F2C5208F00099
:103830001330F101F035F10D700784009930713DBE
:103840008500003F2100E000013FE1006108F10038
:103850006008F000023E840071080318710A8500B8
:103860000008E3006108F1006008F000033E8400F6
:1038700071080318710A85000008E400080021009F
:10388000E20108000330520203185E2C5208F000D7
:103890000930F101F035F10D700784009930713D68
:1038A0008500003F2100E000013FE1006008840046
:1038B000610885000008E300E40108002100E2013E
:1038C00008002100E201080020005308013A031912
:1038D0000A2C033A0319132C013A0319422C612CC8
:1038E0000800E700600803197E2C6735A73E8600B4
:1038F00002308700403FE800413F862C6735AD3EEF
:10390000860002308700403FE800413FE90068043C
:10391000031D8D2CE001E10108006108E300E401D2
:10392000680886006908870042316308C03F640860
:10393000C13F6808013EE3000030693DE4006308D0
:1039400086006408870062088100680886006908AC
:103950008700403081056808860069088700811566
:103960006808860069088700811760080319CE2C53
:103970006735A73E860002308700403FE300413FA5
:10398000E40004306306E5006408E6006735A73EFE
:1039900086006508C03F6608C13FE32C6735AD3E31
:1039A000860002308700403FE300413FE4000430DE
:1039B0006306E5006408E6006735AD3E86006508ED
:1039C000C03F6608C13F6908E1006808E0000800E0
:1039D000803020005006031D0800C0302100E200A6
:1039E000552DF7302100E0009830E1001230E3005F
:1039F000E40108005208031D2F2D52082200E000A8
:103A00001330E101E035E10D600784009930613D3C
:103A10008500003F2100E000013FE1006108220035
:103A2000E100210060082200E000023E84006108FD
:103A30000318610A850000082100E30061082200E4
:103A4000E100210060082200E000033E84006108DC
:103A50000318610A850000082100E4000800210025
:103A6000E20108000330520203184F2D52082200D1
:103A7000E0000930E101E035E10D60078400993094
:103A8000613D8500003F2100E000013FE10060084A
:103A90008400610885000008E300E40108002100BB
:103AA000E20108002100E201080020005308013A69
:103AB0000319F12C033A0319FA2C013A0319322D98
:103AC000522D08002100E2170E30FB009930FA0059
:103AD000FC017A0886007B0887008101FA0A031935
:103AE000FB0A0230FC0A7C02031C692D2030F00026
:103AF0003030F101F201F301F400F501C7259D31E9
:103B00003D000E17FD017D08B63E8600023087009D
:103B100081017D08B33E860003308101FD0A7D02EC
:103B2000031C832DE630F0000230F1000230F20178
:103B3000F301F400F501C7259D313D000E13283037
:103B40002500A7002030A8012300EE00EC00FF397B
:103B5000031D0030ED00200052082500E800680831
:103B6000031DB62D10302400ED0008002000E830C1
:103B7000D801D80AD901DA000230DB00DC01DC0A06
:103B8000DD018E31602620302400ED000800710830
:103B9000F7007008F6000130F4020030F53B740FB6
:103BA000D42D750A03190800760886007708870067
:103BB00072088100F60A0319F70ACB2D2100E217DB
:103BC0000E302300E1009930E000E2016008860039
:103BD000610887008101E00A0319E10A0230E20A64
:103BE0006202031CE62D20302200E0003030E101AB
:103BF000E201E301E400E50147269D313D000E1797
:103C00002300E3016308B63E86000230870081018D
:103C10006308B33E860003308101E30A6302031C9C
:103C2000022EE6302200E0000230E1000230E20124
:103C3000E301E400E50147269D313D000E132830E5
:103C40002500A7002030A8012300EE00EC00FF397A
:103C5000031D0030ED00200052082500E800680830
:103C6000031D362E10302400ED0008002200E8303D
:103C7000EA01EA0AEB01EC000230ED00EE01EE0A87
:103C8000EF018A31752220302400ED000800610820
:103C9000E7006008E6000130E4020030E53B640F15
:103CA000542E650A03190800660886006708870015
:103CB00062088100E60A0319E70A4B2E023024004D
:103CC0006C06031D652E91260800EC01250058089E
:103CD000031D8F2E23006C08013EF60000306D3D61
:103CE000F700760886007708870010308100503092
:103CF000F600F7016C0886006D08870042317608EF
:103D0000C03F7708C13F6C0886006D0887000C3003
:103D100081006C0886006D08870081170800D801B3
:103D2000080023006E0886008701413FF500F2007D
:103D3000F301730825002402031DA02E720823023C
:103D40000318A42E2308F5007508A302031CA4037E
:103D5000F401750874020318BA2E20088600023098
:103D600087007408603E8400850100088100A00A75
:103D7000F40AA92E230824040319F32E23006C0847
:103D8000013EF20000306D3DF300720886007308BA
:103D90008700103081006030F200F3016C0886006B
:103DA0006D08870042317208C03F7308C13F6E083A
:103DB000860087016C08011BE82E86006D088700CD
:103DC000483081006C0886006D0887008117080064
:103DD00086006D088700083081006C0886006D0839
:103DE00087008117080023006C08013EF2000030B4
:103DF0006D3DF30072088600730887001030810063
:103E00005030F200F3016C0886006D0887004231E3
:103E10007208C03F7308C13F6C0886006D088700B8
:103E2000043081006C0886006D088700811725002A
:103E300025082608A2135608031D08008E31822685
:103E40000800023024006C06031D272F592FEC01B7
:103E500025005808031D572F23006C08013E22003F
:103E6000E600003023006D3D2200E7006608860072
:103E700067088700103081005030E600E70123001A
:103E80006C0886006D088700423122006608C03F3A
:103E90006708C13F23006C0886006D0887000C305E
:103EA00081006C0886006D08870081170800D80122
:103EB000080023006E0886008701413F2200E500CC
:103EC000E200E301630825002402031D6B2F22009A
:103ED0006208250023020318702F23082200E50042
:103EE000220065082500A302031CA4032200E401AC
:103EF0006508640203188D2F250020088600023013
:103F0000870022006408603E84008501000881006B
:103F10002500A00A2200E40A782F250023082404A3
:103F20000319CD2F23006C08013E2200E20000306F
:103F300023006D3D2200E3006208860063088700CD
:103F4000103081006030E200E30123006C0886003D
:103F50006D088700423122006208C03F6308C13FFC
:103F600023006E08860087016C08011BC22F8600A3
:103F70006D088700483081006C0886006D08870056
:103F80008117080086006D088700083081006C08E2
:103F900086006D0887008117080023006C08013E29
:103FA0002200E200003023006D3D2200E3006208A1
:103FB000860063088700103081005030E200E30182
:103FC00023006C0886006D088700423122006208D9
:103FD000C03F6308C13F23006C0886006D0887005E
:103FE000043081006C0886006D0887008117250069
:103FF00025082608A2135608031D08008B31152B2F
:020000040001F9
:04000E00E4FFCFFF3D
:00000001FF
