:04000000803118280B
:100008007E14803120007F082100AD000B1B121DDB
:1000180012282000121D12288331E02321002D0808
:100028002000FF007E10090080311A28C6308400A5
:10003800003085001C3090313C2080312030840015
:1000480001308500473090313C208031A030840059
:1000580001308500403090313C20803120308400D0
:1000680002308500403090313C208031A03084003F
:1000780002308500403090313C20803120308400AF
:1000880003308500403090313C207E1020009031B4
:10009800692820005203031D662850081F39003ABA
:1000A800031D66282100D517033020005106031DC3
:1000B800642801302100C20042082200CE006628D0
:1000C8002200CE0120005208031D080050081F39E5
:1000D800023A031D080054080F39003A03190800B2
:1000E80054080F392100C2000330420203180800E7
:1000F80020305F06031D0800D5172000D41B952863
:1001080054080F3909072A3E860001308700403F0E
:100118002200EA00413FEB00200054080F39383E26
:10012800A528200054080F390907CD3E860087010D
:10013800403F2200EA00413FEB00200054080F39FD
:100148003B3E86000130870001082100C2004208BA
:100158002200E9006918C028FB302100C200FF30E6
:10016800C30022006A08210042052200EA006B0849
:10017800210043052200C52804306A04EA00003043
:100188006B04EB002000D41BD62854080F3909074C
:100198002A3E86000130870022006A08C03F6B08AB
:1001A800C13FE228200054080F390907CD3E8600D8
:1001B800870122006A08C03F6B08C13F0330200056
:1001C8005106031D082922006A0886006B0887006B
:1001D800811FFC282000D41BF52854080F39383E0D
:1001E800F82854080F393B3E8600013087008114F7
:1001F80022006A0886006B08870001156A088600D5
:100208006B08870081170800043022006A06EA009C
:1002180000306B06EB006A0886006B088700811FB8
:100228003B297F302100C20022006A0886006B0843
:10023800870021004208810522006A0886006B08B1
:100248008700011700302100BD000530BC002200E6
:100258006B082100BF0022006A082100BE0002309E
:10026800C0000030C100923166228031412922004D
:100278006A0886006B0887000117043022006A06A6
:10028800EA0000306B06EB00E91850296A0886007E
:100298006B088700811F7D292000D41B572954082B
:1002A8000F39383E5A2954080F393B3E8600013031
:1002B800870081103B302100C20022006A088600B6
:1002C8006B0887002100420881050030BD00053019
:1002D800BC0022006B082100BF0022006A08210030
:1002E800BE000230C0000030C10092316622803169
:1002F80088293B302100C20022006A0886006B086A
:100308008700210042088105200054080F39983ED3
:100318002100C200C3010E30C33D42082200E7009D
:10032800210043082200E800FE302100C20022001C
:1003380067088600680887002100420881050800D0
:1003480020005203031DBC2950081F39003A031D21
:10035800BC292100D517033020005106031DBA29F6
:100368000130DE005E082200CE00BC292200CE014A
:1003780020005208031D080050081F39023A031DC7
:10038800080054080F39003A0319080054080F39B7
:10039800DE0003305E0203180800203021005F06EB
:1003A800031D0800D5172000D41BEB2954080F396A
:1003B80009072A3E860001308700403F2100A3003C
:1003C800413FA400200054080F39383EFB29200083
:1003D80054080F390907CD3E86008701403F2100A8
:1003E800A300413FA400200054080F393B3E86007B
:1003F800013087000108DE005E082100A2002218F3
:10040800152AFB302000DE00FF30DF002100230822
:1004180020005E052100A300240820005F052100BC
:100428001A2A04302304A30000302404A400200066
:10043800D41B2B2A54080F3909072A3E860001309D
:10044800870021002308C03F2408C13F372A200025
:1004580054080F390907CD3E86008701210023087B
:10046800C03F2408C13F033020005106031D5D2A08
:1004780021002308860024088700811F512A2000B4
:10048800D41B4A2A54080F39383E4D2A54080F39CC
:100498003B3E860001308700811421002308860036
:1004A800240887000115230886002408870081177F
:1004B8000800043021002306A30000302406A4000D
:1004C8002308860024088700811F902A7F30200097
:1004D800DE002100230886002408870020005E082B
:1004E80081052100230886002408870001170030B1
:1004F8002000D9000530D800210024082000DB00A6
:10050800210023082000DA000230DC000030DD0082
:10051800923136228131962A210023088600240848
:1005280087000117043021002306A30000302406A9
:10053800A400A218A52A2308860024088700811F82
:10054800D12A2000D41BAC2A54080F39383EAF2AD0
:1005580054080F393B3E86000130870081103B303C
:10056800DE002100230886002408870020005E089A
:1005780081050030D9000530D8002100240820006A
:10058800DB00210023082000DA000230DC00003004
:10059800DD00923136228131DC2A3B302000DE003A
:1005A8002100230886002408870020005E088105B2
:1005B800200054080F39983EDE00DF010E30DF3D81
:1005C8005E082100A00020005F082100A100FE3085
:1005D8002000DE0021002008860021088700200076
:1005E8005E088105080021005F03031D072B3D00FD
:1005F8008E1A072B90011214121602302300E00005
:1006080060082100DF003D001019121D142BFB307B
:100618002300E00060083D0090059131A721823158
:100628003D008E1C1A2B2000121108001018121CF5
:100638002E2B85318F25823121001215043023009D
:10064800E00060082100DF00FE302300E0006008C1
:100658003D009005101A121E342B91314821823129
:100668003D00101F5E2B121F492B73302100BC0068
:100678000030BD000030BE000030BF000130C000B7
:100688000030C100923166228231BF302300E00081
:1006980060083D00900591310D21823122004B0800
:1006A8000319582B0130CB024B08031D5E2B8A31EE
:1006B800AD2282313D00901A921E652B92310F2295
:1006C80082313D009018921C7B2BFF302100BC002A
:1006D8007F30BD000030BE000030BF000130C000D8
:1006E8000030C1009231662282313D00930104300E
:1006F80021005F020318832B2000121108003D001F
:10070800921DDD2B2200EF0104306F020318DD2B50
:100718003D00901DDD2B0F082300E000600821003C
:10072800E000600C2300E000E00C600C0F39E100F1
:1007380061082100DB00F7302300E00060083D007D
:10074800900521006019AB2B5B08383EAE2B2100C9
:100758005B083B3E86000130870001080139230011
:10076800E0000130E00601086006FE3960068100FD
:1007780021005B08031DC42B9531D5258231D32B6D
:1007880072302100BC000030BD00E030BE000030F7
:10079800BF000030C000C1009231662282310130B2
:1007A8002300E00060082200EF0704306F02031CFA
:1007B8008C2B20001211080021005F03031DEF2B72
:1007C8003D008E1AEF2B90011214121602302100F0
:1007D800AA002A08DF003D001019121DFC2BFB306F
:1007E8002100AA002A083D00900591318721833114
:1007F8003D008E1C022C2000121108001018121C3B
:10080800132C863145268331210012150430AA00A5
:100818002A08DF00FE30AA002A083D009005101AB9
:10082800121E192C9131292183313D00101F432CB0
:10083800121F2E2C73302000D8000030D900003051
:10084800DA000030DB000130DC000030DD009231DE
:1008580036228331BF302100AA002A083D009005C6
:100868009031A620833122004B0803193D2C01301A
:10087800CB024B08031D432C87318F2783313D0062
:10088800901A921E4A2C9131EA2183313D0090182A
:10089800921C602CFF302000D8007F30D900003037
:1008A800DA000030DB000130DC000030DD0092317E
:1008B800362283313D009301043021005F02031882
:1008C800682C2000121108003D00921DBA2C21004E
:1008D800AC0104302C020318BA2C3D00901DBA2C30
:1008E8000F082100AA002A08E000600CAA00AA0C40
:1008F8002A0C0F39AB002B08DB00F730AA002A08B6
:100908003D009005210060198C2C5B08383E8E2C28
:100918005B083B3E86000130870001080139AA00C8
:100928000130AA0601082A06FE392A0681005B085A
:10093800031DA22C953126258331B12C723020005D
:10094800D8000030D900E030DA000030DB00003099
:10095800DC00DD0092313622833101302100AA000B
:100968002A08AC0704302C02031C712C2000121139
:1009780008002100121122003E083F040319CD2C63
:100988003E0886003F088700811FCD2C21001215E4
:1009980008000330220054060319D4015408031D2B
:1009A800D82C210012150800023022005406031D1D
:1009B800F82C2100AE01AE0A0030AF000030B000C4
:1009C800B10102308C319F24843121002F0822008C
:1009D800BF0021002E082200BE0003302100B9000C
:1009E80039082200D4008C2D5403031D8C2D41306E
:1009F8005302031C012D4030032D2200530821000F
:100A0800B9003908BB003B03FF3A22005307210015
:100A1800B90039082200D30020302100B900390874
:100A28002200C20021003B08B9003908BA002200A0
:100A3800520803193E2D612D220044088600033018
:100A4800870001082100B900220042088600023010
:100A580087002100390881000130B90039082200D7
:100A6800C20701302100B90039082200C40701304B
:100A78002100BA0221003A080319652D202D220011
:100A8800440886000330870001082100B9002200CD
:100A980042088600023087002100390881000130B1
:100AA800B90039082200C20701302100B90039080D
:100AB8002200C40701302100BA0221003A08031DB0
:100AC800432D22005308031D762D403021003B069C
:100AD800031D702D0230722D03302100B900390832
:100AE8002200D4002100AE01AE0A2030AF0002304F
:100AF800B0003B08B9003908B10002308C319F249E
:100B080021002F082200BF0021002E082200BE006D
:100B1800210012150800210012113D0093019001D7
:100B280098010E302100B0009930AF00B1010230B9
:100B380031020318B02D2F08860030088700810184
:100B48000130AF070030B03D0130AE002E08B107CC
:100B580002303102031C9F2D16303D0091009F305A
:100B680097007B3092002100B2010C30320203184A
:100B7800D62D3208AE000130AE35FF3E031DC02D24
:100B88002E35203E860087010030C03F0030C13F2F
:100B9800C23FC33F0130AE002E08B2070C3032020C
:100BA800031CBD2D3D000E1796010E120E13F730D3
:100BB8002100AE002E083D0090052100D501C80196
:100BC800C901CA013D009019DB2D01302100AE009A
:100BD8002E082200CA0001302100AE002E08220093
:100BE800C900C801C701CD012100B201033032029A
:100BF8000318212E3235CD3E860087010030C03FD4
:100C0800C13F32352A3E8600013087000030C03FA0
:100C1800C13F32083B3E860001308700810132081F
:100C2800383E86000130870081010130AE002E0871
:100C3800B20703303202031CFE2D2830CD000030ED
:100C4800CE0016303D00980000302000A300503040
:100C5800A2001030A10004302100AE002E082000B0
:100C6800A000A0172100E10100302200B3000030ED
:100C7800B2000030B1000030B000C6012100DF0131
:100C88000800210012113D009301900198010E30D7
:100C9800F2009930F100F301023073020318652E57
:100CA800710886007208870081010130F107003061
:100CB800F23D0130F0007008F30702307302031CA4
:100CC800542E16303D0091009F3097007B309200E3
:100CD800F4010C30740203188A2E7408F0000130F5
:100CE800F035FF3E031D742E7035203E86008701C7
:100CF8000030C03F0030C13FC23FC33F0130F00069
:100D08007008F4070C307402031C712E3D000E1796
:100D180096010E120E13F730F000700890052100AE
:100D2800D501C801C901CA013D0090198F2E0130B3
:100D3800F00070082200CA000130F0007008C900F5
:100D4800C801C701CD01F401033074020318CF2E86
:100D58007435CD3E860087010030C03FC13F7435F1
:100D68002A3E8600013087000030C03FC13F74082A
:100D78003B3E86000130870081017408383E8600BA
:100D88000130870081010130F0007008F40703305A
:100D98007402031CAC2E28302100CD000030CE0098
:100DA80016303D00980000302000A3005030A2000B
:100DB8001030A1000430F0007008A000A017210036
:100DC800E10100302200B3000030B2000030B10071
:100DD8000030B000C6012100DF01080021005E08D4
:100DE80086008701413FB3003308B000B1013108E4
:100DF8004A02031D012F300849020318072F49082A
:100E0800B0003008B3003308B000B1013008C9029F
:100E18003108CA3BB201330832020318282F3208BE
:100E2800603E860087010108B00046088600013050
:100E38008700300881000130B0003008C607013053
:100E4800B0003008B2070F2F49084A040319622F6F
:100E58005808013EB0000030593DB1003008860006
:100E680031088700103081006030B0000030B100D8
:100E7800580886005908870042313008C03F3108B9
:100E8800C13F5E0886008701011B562F580886005F
:100E9800590887004830810058088600590887009B
:100EA8008117080058088600590887000830810013
:100EB8005808860059088700811708005808013E1D
:100EC800B0000030593DB100300886003108870075
:100ED800103081005030B0000030B1005808860052
:100EE8005908870042313008C03F3108C13F5808CF
:100EF8008600590887000430810058088600590880
:100F0800870081174B084C08C8135A08031D0800AE
:100F18008A31AD22080022004A08031D080001306A
:100F2800F0007008CA004908031D08000130F000ED
:100F38007008C900023021005C06031DB52F4D085A
:100F480086004E088700413181014D0886004E0811
:100F58008700483081004D0886004E0887008117B9
:100F680008005C03031D08002200CC011030F000CB
:100F780021005E0A86008701700881005030F00069
:100F88000030F1005E08023E860087017008C03F0D
:100F98007108C13F0430F0005E08860087017008C0
:100FA80081005E088600870181170130F000700813
:100FB8002200CC0021005808013EF0000030593DC5
:100FC800F1007008860071088700103081005030E9
:100FD800F0000030F10058088600590887004231B7
:100FE8007008C03F7108C13F58088600590887003B
:060FF800803081000800BA
:10100200023021005C06031D09288631F226080001
:101012002100DC0122004C08031D3528210058085C
:10102200013EB4000030593DB50034088600350851
:101032008700103081005030B4000030B5005808ED
:1010420086005908870042313408C03F3508C13F45
:1010520058088600590887000C308100580886001D
:1010620059088700811708002200CC0108002000DF
:10107200500E890C0339003A031D08008C28210008
:10108200D5170830C4004408DF0008008B31A023C4
:1010920008008D3120250800E1302100D300003006
:1010A200D40055140130C4004408D600D5170800F6
:1010B20095317D25080080314D200800200054081C
:1010C200653E2100D3000130D40055140130C40024
:1010D2004408D600D51708002100D5172000520871
:1010E2002100C40020005408653E860001308700BC
:1010F200210044088100080000302100BD000230B8
:10110200BC000030BE000030BF000030C000C10093
:101112009231662208002000510884000D3004023A
:101122000318080090310435003E820008002000B8
:1011320050081F39013A031D0800500E890C03396B
:10114200013A031D080054080319E6285403031D3D
:101152000800E62856302100D3000130D4000030C8
:10116200D7000830D6005514D51708005630210094
:10117200D3000130D400D517080020005708210001
:10118200CA00200056082100C9005E30AE002E08B9
:10119200C600CB01CC01C81708005E302100D30085
:1011A2000130D4000030D7000730D600C130AE0085
:1011B2002E08D5000800200052082100AE002E089B
:1011C2002200D1002100D517080020005108003A62
:1011D2000319AB28013A0319B728213A0319BE288B
:1011E200013A0319CE28033A0319DC28F82808002B
:1011F20021004D0886004E0887000030011B013097
:10120200F50004304D06CD0000304E06CE00083009
:101212005F06031D1B29200052087F393D009600FE
:10122200160803191629103017290430F300730821
:101232002100DF005C03031D5A296030F3000030F7
:10124200F4004D0886004E08870042317308C03F03
:101252007408C13F8931C9218831023021005D06FD
:10126200031D3F294D0886004E0887000430810087
:101272004D0886004E088700811708007508031D77
:101282004E294D0886004E088700483081004D08DF
:1012920086004E088700811708004D0886004E0818
:1012A2008700083081004D0886004E0887008117AC
:1012B2000800C81F5F294B084C08C813DC0108004E
:1012C20021004D0886004E0887000030011B0130C6
:1012D200B30004304D06CD0000304E06CE0008307B
:1012E2005F06031D8329200052087F393D009600C6
:1012F200160803197E2910307F2904302100B1001D
:101302003108DF005C03031DC2296030B1000030E8
:10131200B2004D0886004E08870042313108C03FB6
:101322003208C13F8A313B228931023021005D06F9
:10133200031DA7294D0886004E088700043081004E
:101342004D0886004E088700811708003308031DE8
:10135200B6294D0886004E088700483081004D08A6
:1013620086004E088700811708004D0886004E0847
:101372008700083081004D0886004E0887008117DB
:101382000800C81FC7294B084C08C813DC01080015
:101392001030F0007008F2000030210057021030C7
:1013A200031956020318E5295608F0007008F200E6
:1013B2005D08031DDE290130E2295D03031DE529D5
:1013C2000230F0007008DD007208F000F1017008D0
:1013D200D6027108D73B4D08013EF00000304E3D69
:1013E200F100700886007108870072088100603081
:1013F200F00070082200CF002100551C1A2A372A5B
:10140200210053088400540885000008F0002200DF
:101412004F08860087017008810001302100D30740
:101422000030D43D0130F00070082200CF070130B7
:10143200F202720803190800012A210053088400ED
:10144200540885000008F00022004F08860087013A
:101452007008810001302100D3070030D43D0130F3
:10146200F00070082200CF070130F202720803195F
:1014720008001E2A10302100AE002E08B0000030F5
:1014820057021030031956020318572A5608AE00A5
:101492002E08B0005D08031D502A0130542A5D0356
:1014A200031D572A0230AE002E08DD003008AE00C0
:1014B200AF012E08D6022F08D73B4D08013EAE00E1
:1014C20000304E3DAF002E0886002F0887003008FE
:1014D20081006030AE002E082200CF002100551C92
:1014E2008C2AA92A53088400540885000008AE00FB
:1014F20022004F088600870121002E08810001305A
:10150200D3070030D43D0130AE002E082200CF07B1
:1015120001302100B002300803190800732A530871
:101522008400540885000008AE0022004F0886009F
:10153200870121002E0881000130D3070030D43DFD
:101542000130AE002E082200CF0701302100B00288
:10155200300803190800902A22004A08031D0800D7
:1015620001302100AE002E082200CA004908031DE6
:10157200080001302100AE002E082200C90002300E
:1015820021005C06031DD72A4D0886004E088700FD
:10159200413181014D0886004E08870048308100A4
:1015A2004D0886004E088700811708005C03031D62
:1015B20008002200CC0110302100AE005E0A860035
:1015C20087012E0881005030AE000030AF005E0867
:1015D200023E860087012E08C03F2F08C13F04301B
:1015E200AE005E08860087012E0881005E08860034
:1015F200870181170130AE002E082200CC002100A5
:101602005808013EAE000030593DAF002E0886005A
:101612002F088700103081005030AE000030AF003C
:10162200580886005908870042312E08C03F2F080B
:10163200C13F5808860059088700803081000800A1
:10164200803020005006031D0800C030F0007008F2
:101652002100D500932B91302100D3009830D40083
:101662000030D7001230D600080020005208031DB7
:10167200692B5208F000F101F035F10DAD30700721
:1016820084009830713D8500003F2100D300013F66
:10169200D4005408F1005308F000023070078400AF
:1016A20071080318710A85000008F2007208D6005A
:1016B2005408F1005308F0000330700784007108E9
:1016C2000318710A85000008F2007208D7000800AA
:1016D2002100D501080003302000520203188D2B8F
:1016E2005208F000F101F035F10DA33070078400CB
:1016F2009830713D8500003F2100D300013FD400A6
:1017020053088400540885000008F000F1017008B5
:10171200D6007108D70008002100D5010800210079
:10172200D501080020005308013A03192C2B033A73
:101732000319362B013A03196C2B902B08008030C9
:1017420020005006031D0800C0302100AE002E0804
:10175200D500122C91302100D3009830D4000030F3
:10176200D7001230D600080020005208031DE82BD3
:1017720052082100AE00AF01AE35AF0DAD302E07DD
:10178200840098302F3D8500003FD300013FD400F4
:101792005408AF005308AE0002302E0784002F0811
:1017A20003182F0A85000008B0003008D60054083C
:1017B200AF005308AE0003302E0784002F08031831
:1017C2002F0A85000008B0003008D7000800210069
:1017D200D501080003302000520203180C2C5208D5
:1017E2002100AE00AF01AE35AF0DA3302E0784004D
:1017F20098302F3D8500003FD300013FD4005308AD
:101802008400540885000008AE00AF012E08D600FF
:101812002F08D70008002100D50108002100D501BA
:10182200080020005308013A0319AB2B033A0319AD
:10183200B52B013A0319EB2B0F2C0800F8007008A6
:1018420003192B2C7835CD3E86008701403FF900E5
:10185200413F332C78352A3E860001308700403FD5
:10186200F900413FFA0079087A04031D3B2CF0018C
:10187200F1010800FF307105F4007F307205F500B8
:10188200790886007A08870042317408C03F7508DB
:10189200C13F7908013EF40000307A3DF50074083A
:1018A200860075088700730881004030F4007908CB
:1018B20086007A08870074088105790886007A080C
:1018C20087008115790886007A08870081177008D9
:1018D2000319822C7835CD3E86008701403FF40003
:1018E200413FF50004307406F60000307506F7003B
:1018F2007835CD3E860087017608C03F7708C13F24
:101902009A2C78352A3E860001308700403FF40049
:10191200413FF50004307406F60000307506F7000A
:1019220078352A3E8600013087007608C03F770866
:10193200C13F7A08F1007908F00008002100B600E2
:101942002E080319AC2C3635CD3E86008701403F68
:10195200B700413FB42C36352A3E8600013087005D
:10196200403FB700413FB80037083804031DBC2C84
:10197200AE01AF010800FF302F05B2007F30300505
:10198200B300370886003808870042313208C03F6A
:101992003308C13F3708013EB2000030383DB30082
:1019A2003208860033088700310881004030B200D7
:1019B2003708860038088700320881053708860014
:1019C2003808870081153708860038088700811794
:1019D2002E080319032D3635CD3E86008701403F80
:1019E200B200413FB30004303206B4000030330687
:1019F200B5003635CD3E860087013408C03F350834
:101A0200C13F1B2D36352A3E860001308700403FFC
:101A1200B200413FB30004303206B4000030330656
:101A2200B50036352A3E8600013087003408C03FB3
:101A32003508C13F3808AF003708AE000800210062
:101A4200D5170E302200E8009930E700E901023094
:101A5200690203183F2D6708860068088700810124
:101A62000130E7070030E83D01302100C2004208A2
:101A72002200E90702306902031C2C2D20302100CC
:101A8200AE000030AF000030B000B1003030B20024
:101A92000030B3009031BE208D313D000E17220080
:101AA200EA0103306A0203186C2D6A083B3E860085
:101AB2000130870081016A08383E860001308700C4
:101AC200810101302100C20042082200EA070330EE
:101AD2006A02031C562D65302100AE000130AF00B2
:101AE2000030B000B1000230B2000030B3009031DB
:101AF200BE208D313D000E1328302100CD00003074
:101B0200CE002030C2004208DE005E08D800FF3955
:101B1200031D0030D900200052082100C2004208F3
:101B2200E1006108031D9A2D1030C2004208DF0057
:101B320008000030BD000130BC00E130BE000030C2
:101B4200BF000130C0000030C10092316622203057
:101B52002100C2004208DF0008002100D5170E3024
:101B6200A1009930A000A201023022020318CC2D5C
:101B7200200886002108870081010130A00700307B
:101B8200A13D01302000DE005E082100A2070230E4
:101B92002202031CB92D2030F0000030F100003089
:101BA200F200F3003030F4000030F50090318E2066
:101BB2008D313D000E172100A301033023020318CB
:101BC200F82D23083B3E860001308700810123085F
:101BD200383E860001308700810101302000DE009E
:101BE2005E082100A30703302302031CE22D6530A7
:101BF200F0000130F1000030F200F3000230F40096
:101C02000030F50090318E208D313D000E132830CA
:101C12002100CD000030CE0020302000DE005E0822
:101C22002100DE005E08D800FF39031D0030D90014
:101C320020005208DE005E082100E1006108031D59
:101C4200292E10302000DE005E082100DF0008008F
:101C520000302000D9000130D800E130DA00003035
:101C6200DB000130DC000030DD0092313622203012
:101C72002000DE005E082100DF0008003D000E1299
:101C82002100D51B852EC81F542E0230F500750881
:101C9200DC0022004708031D502E96312F26220019
:101CA200C901CA01080021005808013EF5000030B0
:101CB200593DF600750886007608870010308100CD
:101CC2005030F5000030F6005808860059088700A9
:101CD20042317508C03F7608C13F5808860059084E
:101CE20087000C3081005808860059088700811748
:101CF2004D0886004E088700043081004D0886009A
:101D02004E088700811708002000D01F9E2E013048
:101D1200F50075082100DC0022004808031D942EFE
:101D220096312F268E312200C901CA0121005A089C
:101D3200031D080087318F2708000230F50075085F
:101D42002100DC005808013EF5000030593DF60044
:101D52007508860076088700103081005030F50043
:101D62000030F6005808860059088700423175088D
:101D7200C03F7608C13F58088600590887000430E2
:101D82008100580886005908870081172200C9017E
:101D9200CA0121005A08031D080087318F27080055
:101DA2003D000E122100D51B172FC81FE62E023050
:101DB200B3003308DC0022004708031DE22E9631EF
:101DC200E5262200C901CA01080021005808013E87
:101DD200B3000030593DB400330886003408870050
:101DE200103081005030B3000030B4005808860033
:101DF2005908870042313308C03F3408C13F5808B0
:101E02008600590887000C3081005808860059085E
:101E1200870081174D0886004E0887000430810034
:101E22004D0886004E088700811708002000D01F49
:101E3200302F01302100B3003308DC0022004808B3
:101E4200031D262F9631E5268E312200C901CA01D3
:101E520021005A08031D08008A31AD220800023011
:101E62002100B3003308DC005808013EB300003003
:101E7200593DB400330886003408870010308100D1
:101E82005030B3000030B40058088600590887006B
:101E920042313308C03F3408C13F58088600590810
:101EA200870004308100580886005908870081178E
:101EB2002200C901CA0121005A08031D08008A3103
:101EC200AD22080021005E0886008701413FF5002F
:101ED2007508F200F30173084A02031D722F72089B
:101EE20049020318782F4908F2007208F5007508B4
:101EF200F200F3017208C9027308CA3BF4017508C3
:101F020074020318992F7408603E86008701010845
:101F1200F200460886000130870072088100013015
:101F2200F2007208C6070130F2007208F407802F2F
:101F320049084A040319D32F5808013EF200003021
:101F4200593DF30072088600730887001030810043
:101F52006030F2000030F30058088600590887000C
:101F620042317208C03F7308C13F5E088600870194
:101F7200011BC72F58088600590887004830810086
:101F820058088600590887008117080058088600FB
:101F920059088700083081005808860059088700D0
:101FA200811708005808013EF2000030593DF30045
:101FB2007208860073088700103081005030F200EA
:101FC2000030F30058088600590887004231720831
:101FD200C03F7308C13F5808860059088700043083
:101FE2008100580886005908870081174B084C0861
:101FF200C8135A08031D080087318F27080088314B
:10200200592888315C288831972888315C288831A2
:102012009728883140288831472888317D2888319F
:102022004D2888314A2888315F2888316D288831C7
:1020320097289731C12F9731C42F9731FF2F9731AE
:10204200C42F9731FF2F9731A82F9731AF2F973198
:10205200E52F9731B52F9731B22F9731C72F97318F
:10206200D52F9731FF2F16302100970008003F30FF
:1020720021008E000800640080010131890B3D2897
:1020820000343C3021009900980127009B01210077
:102092001A1B080048288231F72290312030210093
:1020A2005F02031C08003D008E1808008431BD2425
:1020B2000800903179209031903142209031903156
:1020C2003420903185318F2590319031F1200800F4
:1020D20090315A20903185318F25903190313820BE
:1020E200903190314C20903193317F23903172287E
:1020F20022008C018E01303021008C0037308E009E
:102102000F3023008E0010308C00383024008C00F9
:102112002100951322009D0108007108F700700844
:10212200F6000130F4020030F53B740A0319750A17
:102132000319080076088600770887007208810074
:102142000130F6070030F73D922801302200B00737
:102152000030B13D0030B23D0030B33D4D08031DAB
:1021620008000130F0007008C6074608031D080089
:10217200FF30F0007008C600080021002F08B500EB
:102182002E08B4000130B2020030B33B320A031908
:10219200330A03190800340886003508870030081E
:1021A20081000130B4070030B53DC3282100B000E2
:1021B200121122005408031DEE2821003008AF003E
:1021C2002F082200C40021002E08AF002F08220091
:1021D200D300D201D20AD401D40A21001215080078
:1021E20021005F08031D08003D008E019201163098
:1021F20091009F3097007B309200210012150B173F
:102202008B173D008E1907298E15022901302100F6
:10221200AE002E08DF00080001302200B0070030B7
:10222200B13D0030B23D0030B33D4D08031D080002
:1022320001302100AE002E082200C6074608031D09
:102242000800FF302100AE002E082200C600080060
:102252003D001215EF302000DE005E083D009005C3
:102262008E1401302000DE005E082200CD00C6017F
:1022720075302000D8000030D9000030DA0000307C
:10228200DB000030DC00DD009231362208003D0028
:102292001215EF302100C20042083D0090058E1455
:1022A20001302100C20042082200CD00C601753073
:1022B2002100BC000030BD000030BE000030BF0075
:1022C2000030C000C100923166220800FC00771D78
:1022D2006F29F0017C089331BF239131F71C7629D5
:1022E200F001F00A7C089331BF237C08983EF80085
:1022F200F9010E30F93D7808FA007908FB007A08F6
:1023020086007B0887007708810008002200CD0143
:1023120074302000D8000030D9000030DA000030DC
:10232200DB000030DC00DD009231362291313D00CD
:102332008E101211101DA429FB302000DE005E0851
:102342003D0090059B292200C60108002200CD0114
:1023520074302100BC000030BD000030BE000030EF
:10236200BF000030C000C1009231662291313D00B1
:102372008E101211101DC429FB302100C200420828
:102382003D009005BB292200C60108002100BA00C9
:10239200351DD029AE013A08943100249131210033
:1023A200B51CD829AE01AE0A3A08943100242100A6
:1023B2003A08983EB600B7010E30B73D3608B8006D
:1023C2003708B900380886003908870035088100C7
:1023D20008003D00181C0A2A21005E0886008701B9
:1023E20080300106031D082A4D0886004E0887002A
:1023F20084300106031D082A0C30F0005E088600B6
:102402008701700881005E088600870181173D0000
:102412001810DF30F0007008900508003D00181C0D
:102422002F2A21005E088600870180300106031DE5
:102432002D2A4D0886004E08870084300106031DB0
:102442002D2A0C30AE005E08860087012E0881001E
:102452005E088600870181173D001810DF302100D9
:10246200AE002E083D00900508003D2A92319622CA
:10247200080097314027080020005908003A031944
:10248200462A7F3A0319602A652A5808013A031935
:10249200372A033A0319652A013A03193A2A063AF6
:1024A2000319652A773A0319652A013A0319652A3D
:1024B200073A0319652A013A0319652A652A580859
:1024C200FF3A0319652A652A08006D2A933102230F
:1024D200080088319820080021003D08003A0319BD
:1024E200762A7F3A0319902A952A3C08013A031961
:1024F200672A033A0319952A013A03196A2A063A06
:102502000319952A773A0319952A013A0319952A4C
:10251200073A0319952A013A0319952A952A3C0884
:10252200FF3A0319952A952A080000302200E1009B
:102532000030E0004B30DF000030DE00E201E3015A
:102542000830FD007D08E400D5011A30FD007D0849
:10255200F70001309131672192311E30FD007D0874
:10256200F7000230913167219231F001A030F10081
:102572000130F2004030FD007D08F30002308C3162
:102582001F2471082200C1007008C000BE01BF01F3
:10259200D4010800023021005C06031DD32A8F31CA
:1025A200632708002100DC0122004C08031DFF2ADA
:1025B20021005808013EF6000030593DF700760828
:1025C200860077088700103081005030F600003016
:1025D200F700580886005908870042317608C03F44
:1025E2007708C13F58088600590887000C308100DF
:1025F2005808860059088700811708002200CC017C
:10260200080000302200E1000030E0004B30DF0023
:102612000030DE00E201E30108302100BB003B088C
:102622002200E400D5011A302100BB003B08B500AE
:1026320001309131C72193311E302100BB003B088C
:10264200B50002309131C72193312100AE01A03093
:10265200AF000130B0004030BB003B08B100023097
:102662008C319F2421002F082200C10021002E0856
:102672002200C000BE01BF01D40108002100B10048
:102682003108C039AF002F08B000702B31083F3934
:10269200AF002F082200D000500821008E00003029
:1026A20008000030080022005009210031052200F4
:1026B2008E0000300800220050092100310522005E
:1026C2008E0020000E08220050052100AF002E08C7
:1026D2008600033087002F0881000130080030088F
:1026E200003A0319472B403A0319522BC03A0319F7
:1026F200542B403A03195C2B7E2B0800220054080D
:10270200031D080040302100BD003D08B900A03083
:1027120096318A2693312100BE003E08BF00C201D5
:10272200C1013F0841020318B42B4208203EBD00FC
:102732003D08AE004108A03E860002308700010835
:1027420093313F2393312100BE003E08C000400870
:102752000319AF2B0130BD003D08C2070130BD0097
:102762003D08C107922B4208031908004208BD0028
:102772003D08AE0020309031D7200800F50020300F
:10278200F1007108F6007008F1000130F135890B93
:10279200C72B7508F2000130F235FF3E031DCD2B29
:1027A20072357107F3000130F335FF3E031DD52B5F
:1027B2007335F4007408F6077608860087018113E2
:1027C2007008031DEE2B75352A3E86000130870006
:1027D2007608C03F0030C13FF62B7535CD3E8600EE
:1027E20087017608C03F0030C13F76088600870126
:1027F20001137608043E86008701011708002100B4
:10280200B3002030AF002F08B4002E08AF00013013
:10281200AF35890B092C3308B0000130B035FF3ECB
:10282200031D0F2C30352F07B1000130B135FF3EAB
:10283200031D172C3135B2003208B4073408860064
:10284200870181132E08031D302C33352A3E860062
:10285200013087003408C03F0030C13F382C333587
:10286200CD3E860087013408C03F0030C13F3408A6
:102872008600870101133408043E86008701011790
:1028820008002100DD01DA012200C801C701CC01E4
:102892002100DC017F30A6004D0886004E0887002B
:1028A2002608810504304D06CD0000304E06CE00CC
:1028B2007F30A6004D0886004E0887002608810555
:1028C20004304D06CD0000304E06CE007F30A6000B
:1028D200580886005908870026088105D501D601C7
:1028E200D701C801C901CA019731A027943100302C
:1028F2002000D9000330D8000030DA000030DB00BD
:102902000030DC00DD009231362294318E313F26D8
:1029120008002100DD01DA012200C801C701CC0153
:102922002100DC017F30C5004D0886004E0887007B
:102932004508810504304D06CD0000304E06CE001C
:102942007F30C5004D0886004E0887004508810586
:1029520004304D06CD0000304E06CE007F30C5005B
:10296200580886005908870045088105D501D60117
:10297200D701C801C901CA01883138209431003019
:102982002100BD000330BC000030BE000030BF009B
:102992000030C000C1009231662294318E31D126BE
:1029A20008002000E001E1010D2D2100D5172200D1
:1029B2004E03031D192D2000E014192D2100D517F7
:1029C200192D2100D5172000D41BF22C54080F39E1
:1029D20009072A3E860001308700403FF100413F4F
:1029E200FB2C54080F390907CD3E86008701403F72
:1029F200F100413FF2007108860072088700811FD2
:102A0200192D7108860072088700011D192D0130E9
:102A1200F0007008E000192D50081F39003A031920
:102A2200D62C013A0319DF2C033A0319E22C192D93
:102A32002100D51F08006030D3000030D4005514A7
:102A42000230F0007008D60008002D302100A700E7
:102A520027082200CB0021006008FD39031D722DDA
:102A620060363F39A7000130A735FF3E031D352DE3
:102A72002735203EA8002808DE005E08D800FF396E
:102A8200031D0030D90004305806D8000030590622
:102A9200D9005E0886008701010C890C0F390D3AB6
:102AA200031D6F2D50308600870121005E08023E13
:102AB20084008501003FA700013FA8002708840089
:102AC200280885000830A900290803196C2D120076
:102AD2001E00A90B682D9431422408009231CB22AA
:102AE2000800FD3021006005A70004302706031D01
:102AF20008008831F92008002000E001E101BC2D26
:102B02002100D51722004E03031DC82D2000E0141A
:102B1200C82D2100D517C82D2100D5172000D41BA0
:102B22009E2D54080F3909072A3E8600013087007E
:102B3200403F2100AF00413FA92D200054080F392A
:102B42000907CD3E86008701403F2100AF00413F8B
:102B5200B0002F08860030088700811FC82D2F087B
:102B6200860030088700011DC82D0130AE002E08F6
:102B72002000E000C82D50081F39003A0319812DAA
:102B8200013A03198A2D033A03198D2DC82D21000C
:102B9200D51F08006030D3000030D4005514023035
:102BA200AE002E08D60008002D302200EC006C0882
:102BB200CB0021006008FD39031D232E60363F390A
:102BC2002200EC000130EC35FF3E031DE42D6C3594
:102BD200203EED006D082100DE005E08D800FF39BE
:102BE200031D0030D90004305806D80000305906C1
:102BF200D9005E0886008701010C890C0F390D3A55
:102C0200031D202E50308600870121005E08023EFF
:102C120084008501003F2200EC00013FED006C08BA
:102C220084006D0885000830EE006E0803191D2E21
:102C320012001E00EE0B192E94318A2408008831EE
:102C420001200800FD30210060052200EC00043064
:102C52006C06031D08008931612108002200C801A9
:102C6200C701023021005C06031D5C2E5808013E9C
:102C7200F3000030593DF4007308860074088700A1
:102C8200103081006030F3000030F40058088600F4
:102C92005908870042317308C03F7408C13F580881
:102CA2008600590887004830810058088600590874
:102CB200870081170800570820005702031D652E60
:102CC200210056082000560203186E2E57082100D4
:102CD200D700200056082100D6008931C921603072
:102CE200F3000030F40021004D0886004E088700F2
:102CF20042317308C03F7408C13F4D0886004E0838
:102D02008700483081004D0886004E0887008117F1
:102D120008002100BC002200D5014008410403192B
:102D2200982E4008860041088700811BE32E400848
:102D32008600410887004131210039080102031849
:102D4200AD2E22004008860041088700413101086B
:102D52002100BA003A08B9002200D5012100390841
:102D6200220055020318CE2E5508A03E86000130DF
:102D7200870001082100BA002200550821003C0703
:102D8200BB003B088600023087003A088100013010
:102D9200BA003A082200D507AF2E2100AE01A030BA
:102DA200AF000130B0004030BA003A08B100023042
:102DB2008C319F2421002F082200C10021002E08FF
:102DC2002200C000550808002200C801C7010230D5
:102DD20021005C06031D122F5808013EB10000308D
:102DE200593DB20031088600320887001030810058
:102DF2006030B1000030B2005808860059088700E0
:102E020042313108C03F3208C13F58088600590894
:102E120087004830810058088600590887008117CA
:102E22000800570820005702031D1B2F21005608D7
:102E3200200056020318242F57082100D700200033
:102E420056082100D6008A313B2260302100B100B1
:102E52000030B2004D0886004E088700423131082A
:102E6200C03F3208C13F4D0886004E0887004830F7
:102E720081004D0886004E08870081170800200057
:102E820050081F39013A031D0800500E890C0339FE
:102E9200013A031D0800540803198D2F5403031D22
:102EA20008008D2F56302100D3000130D4000030AD
:102EB200D7000830D6005514D51708005630210027
:102EC200D3000130D400D517080020005708210094
:102ED200CA00200056082100C9005E30F0007008C8
:102EE200C600CB01CC01C81708005E302100D30018
:102EF2000130D4000030D7000730D600C130F000D6
:102F02007008D500080020005208F0007008220066
:102F1200D1002100D517080020005108003A0319FA
:102F2200532F013A03195F2F213A0319662F013AF1
:102F32000319762F033A0319842F9F2F08002000CC
:102F4200500E890C0339003A031D0800F42F2100AA
:102F5200D5170830A5002508DF0008008B31212392
:102F620008008D31AE250800E1302100D300003089
:102F7200D40055140130A5002508D600D517080045
:102F82009431D22408008131A42108002000540881
:102F9200653E2100D3000130D40055140130A50054
:102FA2002508D600D51708002100D51720005208A1
:102FB2002100A50020005408653E860001308700EC
:102FC200210025088100080000302000D9000230CD
:102FD200D8000030DA000030DB000030DC00DD0019
:102FE2009231362208002000510884000D3004027C
:102FF20003180800903104351A3E82000800093493
:10300200023443340034023401340034C0343234E4
:1030120009340434003400340134023402340134FB
:10302200003405342434003410340134043424349C
:1030320002340234053424340634003401340534B5
:103042002434013400340134073405348134033428
:1030520008340034023409340434013400340234B4
:103062000A340034003400340734053402340234A4
:10307200403400340034073405348234023440349E
:1030820000340034343403344D34003469340034B1
:1030920063340034723400346F34003463340034E7
:1030A200683400346934003470340034203400341D
:1030B20054340034653400346334003468340034EA
:1030C2006E3400346F3400346C3400346F340034A6
:1030D2006734003479340034203400344934003405
:1030E2006E340034633400342E3400341A34033422
:1030F20050340034723400346F3400346434003499
:1031020075340034633400347434003420340034B1
:103112004E340034613400346D340034653400348C
:1031220012340134003402340234003400341034D6
:1031320009341234013421340034013401340234AC
:1031420000340134A93498344334983477349834B1
:0C3152000434033409340434003498348D
:020000040001F9
:04000E00E4FFFFFF0D
:00000001FF
